:100000000C943A000C9457000C9457000C94570031
:100010000C9457000C9457000C9457000C94570004
:100020000C9457000C94E9060C9457000C9457005C
:100030000C9457000C9423050C9457000C94570013
:100040000C9457000C9457000C9457000C945700D4
:100050000C9457000C9457000C9457000C945700C4
:100060000C9457000C9457003E6733323E3E633386
:100070003200B50711241FBECFEFD8E0DEBFCDBFE1
:1000800011E0A0E0B1E0EEE1F5E102C005900D92D3
:10009000A633B107D9F721E0A6E3B1E001C01D9274
:1000A000AB39B207E1F70E9459000C94820A0C9414
:1000B0000000CF93DF9300D000D000D0CDB7DEB7E3
:1000C00088E690E00E94820580ED97E00E94B107EB
:1000D0000E9469076B017C011E821D82812C912C7C
:1000E000540119821A821B821C8202C073016201B0
:1000F0000E9469072B013C01DC01CB018C199D0991
:10010000AE09BF096C017D01BC01CD010E944A010D
:1001100020E030E040E85DE30E94DB019B01AC01A0
:1001200069817A818B819C810E94DC0069837A835A
:100130008B839C838C0C9D1CAE1CBF1C20E030E08C
:1001400040E85FE30E94D6018823DCF061E080E0B4
:100150000E94E6068DE291E00E946E0620E030E00B
:1001600040E85FE369817A818B819C810E94DB009A
:1001700069837A838B839C83AD81BE811196BE8314
:10018000AD83B8EE8B16B3E09B06A104B1040CF46A
:10019000ADCF60E080E00E94E6062D813E81B9018E
:1001A000330F880B990B0E94C3061E821D82812C7F
:1001B000912C54019BCF5058BB27AA270E94F300D3
:1001C0000C949C010E948E0138F00E94950120F051
:1001D00039F49F3F19F426F40C948B010EF4E0954A
:1001E000E7FB0C948501E92F0E94AD0158F3BA1783
:1001F000620773078407950720F079F4A6F50C943D
:10020000CF010EF4E0950B2EBA2FA02D0B01B901F2
:1002100090010C01CA01A0011124FF27591B99F07C
:10022000593F50F4503E68F11A16F040A22F232F88
:10023000342F4427585FF3CF469537952795A795D8
:10024000F0405395C9F77EF41F16BA0B620B730B7F
:10025000840BBAF09150A1F0FF0FBB1F661F771FF0
:10026000881FC2F70EC0BA0F621F731F841F48F4A5
:10027000879577956795B795F7959E3F08F0B0CF2E
:100280009395880F08F09927EE0F97958795089515
:10029000E89409C097FB3EF4909580957095619520
:1002A0007F4F8F4F9F4F9923A9F0F92F96E9BB27D6
:1002B0009395F695879577956795B795F111F8CF52
:1002C000FAF4BB0F11F460FF1BC06F5F7F4F8F4FBD
:1002D0009F4F16C0882311F096E911C0772321F0B3
:1002E0009EE8872F762F05C0662371F096E8862F4B
:1002F00070E060E02AF09A95660F771F881FDAF7A2
:10030000880F9695879597F9089597F99F6780E8E4
:1003100070E060E008959FEF80EC089500240A9457
:100320001616170618060906089500240A941216D0
:100330001306140605060895092E0394000C11F403
:10034000882352F0BB0F40F4BF2B11F460FF04C0B0
:100350006F5F7F4F8F4F9F4F089557FD9058440F09
:10036000551F59F05F3F71F04795880F97FB991F14
:1003700061F09F3F79F087950895121613061406D1
:10038000551FF2CF4695F1DF08C01616170618065E
:10039000991FF1CF86957105610508940895E89439
:1003A000BB2766277727CB0197F908950E9448025B
:1003B00008F48FEF08950E94EE010C949C010E94B6
:1003C0008E0138F00E94950120F0952311F00C94D5
:1003D00085010C948B0111240C94D0010E94AD0175
:1003E00070F3959FC1F3950F50E0551F629FF00188
:1003F000729FBB27F00DB11D639FAA27F00DB11DA1
:10040000AA1F649F6627B00DA11D661F829F222729
:10041000B00DA11D621F739FB00DA11D621F839FB0
:10042000A00D611D221F749F3327A00D611D231F86
:10043000849F600D211D822F762F6A2F11249F57D4
:1004400050409AF0F1F088234AF0EE0FFF1FBB1FD7
:10045000661F771F881F91505040A9F79E3F510596
:1004600080F00C9485010C94D0015F3FE4F3983E3A
:10047000D4F3869577956795B795F795E7959F5F40
:10048000C1F7FE2B880F911D9695879597F90895D2
:10049000990F0008550FAA0BE0E8FEEF1616170695
:1004A000E807F907C0F012161306E407F50798F0FD
:1004B000621B730B840B950B39F40A2661F0232B16
:1004C000242B252B21F408950A2609F4A140A69592
:1004D0008FEF811D811D089590913B01E0913601C0
:1004E000F0913701992311F0849101C080812FEBA5
:1004F000280F2A3110F4805E0895803249F49F015C
:100500002F5F3F4F3093370120933601EF2B31F7A8
:1005100008951F93CF93DF930E946C02C0E0D0E058
:100520001AE090ED980F9A30B8F49E01129FE00106
:10053000139FD00D1124C80FD11D87FDDA95E097C8
:100540008091360190913701019690933701809305
:1005500036010E946C02E5CFCE01DF91CF911F9151
:10056000089510926F0083E28093800081E1809370
:1005700081001092820080E197E29093890080933D
:10058000880010928B0010928A00229A7894089525
:100590008F929F92AF92BF92DF92EF92FF920F9352
:1005A0001F93CF93DF935C018B01D42E8091380190
:1005B000811105C081E0809338010E94B102109240
:1005C0000901B7FE05C0E894B7F82AE0F22E02C090
:1005D000FF24F394E09081002E2D287FE22E48EC3A
:1005E000F49EC00111248A159B05E0F4E50151E158
:1005F000A51657E2B50610F0C0E1D7E2BE01769528
:10060000679580E090E06058794687469F4F4E019D
:10061000A12CB12CA50194010E94D40859018E2D62
:10062000816024C0C8E2FC9EC02D1124D0E0CA1510
:10063000DB0508F4E501BE01769567959E0140E073
:1006400050E08AE0F81207C080E090E0605E7344FA
:1006500081449F4F06C080E090E060537D4E8C4EF9
:100660009F4F0E94D40859018E2D8260882E2AE067
:10067000F21207C0CE0105966AE070E00E94C00841
:10068000EB01C83E43E0D40759F09801DE010E9417
:10069000150928EE33E040E050E00E94F608890199
:1006A00010926F0080928100B0928900A092880021
:1006B00020918800309189004D2D403108F04FE0A5
:1006C00080E190E0841B9109A90102C056954795ED
:1006D0008A95E2F750938B0040938A0010933E0175
:1006E00000933D0186B38FEF86BB81E080936F005E
:1006F000DF91CF911F910F91FF90EF90DF90BF900E
:10070000AF909F908F900895CF93DF93EB018F3F31
:1007100011F0411105C040E0BE0188EE93E043C0F6
:10072000813130F050EF580F503618F05FE501C0BE
:1007300050E0852F6CE00E94B408682F74EF7603B8
:1007400090011124250F311D2C30310540F4F901A1
:10075000EE0FFF1FE05FFE4F2081318102C020E0DD
:1007600030E0873081F0082E02C0220F331F0A9438
:10077000E2F7823028F0C90105966AE070E00CC00B
:10078000C90190580CC0C90136E0880F991F3A95ED
:10079000E1F7029665E070E00E94C008CB014031AD
:1007A00008F04FE0BE010E94C802DF91CF9108958A
:1007B000A2E0B0E0EEEDF3E00C9426099090080181
:1007C00080913A01882321F060913901611117C0AD
:1007D00077247394B0ECAB2EBDE5BB2E1AE0612EEE
:1007E00004E0802E80EDC82E87E0D82E94E0E92E1C
:1007F000F12C04EF11E02FE0422E512C15C070E0D7
:1008000040E088EE93E00E94C8021092390117C1BF
:100810008636D4F5813609F4A9C07CF58C3309F409
:1008200060C08E3381F493940E946C022091360153
:10083000309137012F5F3F4F3093370120933601BE
:10084000853631F752C0813209F08BC080920801A1
:10085000D0920701C0920601F0920501E0920401D6
:100860001093030100930201509201014092000194
:1008700010923A01A4E09A2ED7CF8336A1F10CF45E
:1008800078C010E082E077C08D36C1F194F48736ED
:1008900091F174F18C3609F064C00E948902BC01A8
:1008A00090930501809304018091060190910701C6
:1008B00051C08237C9F14CF48F3609F052C00E9402
:1008C0008902982E80930801AFCF843781F1863753
:1008D00009F047C00E9489029093010180930001B2
:1008E000A3CF9A94A1CF10E020C010E084E043C0D1
:1008F00010E085E040C010E087E03DC00E946C023F
:100900008C3619F410923A0104C070923A01109298
:10091000390120913601309137012F5F3F4F3093DD
:1009200037012093360180CF11E080E024C00E947F
:100930008902BC01C5010E94C008669EC001679E75
:10094000900D11249093070180930601609104019A
:10095000709105010E94C008709303016093020129
:1009600063CF109237011092360169C010E089E020
:1009700002C010E08BE0082F9CE0999E000D11242E
:100980000E946C02982F977F933261F42091360178
:10099000309137012F5F3F4F30933701209336015D
:1009A0000F5FEECF8D3271F4209136013091370117
:1009B0002F5F3F4F309337012093360101500E9443
:1009C0006C02F0CF60910201709103018153883075
:1009D00050F4E0900601F09007010E948902BC01EA
:1009E000C7010E94C0087B01F694E79469837A836B
:1009F0000E946C0269817A818E3269F420913601FD
:100A0000309137012F5F3F4F3093370120933601EC
:100A10006E0D7F1DE9CF80913A01882339F09B014B
:100A20003695279520933901621B71094091000189
:100A3000112311F08FEF01C0802F0E9484032296B2
:100A4000E0E10C9442091F920F920FB60F9211240D
:100A50002F933F934F935F936F937F938F939F93C6
:100A6000AF93BF93EF93FF9380913D0190913E012F
:100A70009C012150310930933E0120933D01892B87
:100A800011F510926F00789480918100887F8160C9
:100A90008093810080E197E29093890080938800A1
:100AA00010928B0010928A0081E08093090180915E
:100AB000360190913701892B31F080913C018111F1
:100AC00002C00E94D803FF91EF91BF91AF919F9117
:100AD0008F917F916F915F914F913F912F910F90E7
:100AE0000FBE0F901F90189510926F0090933701D2
:100AF0008093360181E080933B01109239010E947E
:100B0000D80308950E947405089581E090E06F93E2
:100B100064E06A95F1F76F910197C9F708950F9313
:100B20001F93CF93DF931AB157985A98289AC0E031
:100B3000D0E00E9485055C9A0E94850509B15C9809
:100B40000E9485055C9A0E9485055C98249607FFA3
:100B500010C0AE0160E070E080913F0190914001D3
:100B6000A0914101B0914201481759076A077B07DC
:100B700000F31AB9DF91CF911F910F91089595B1AC
:100B8000282F217030E0220F331F482F467068E075
:100B9000469FA0011124242B9D7C292B25B99BB1B4
:100BA00088708295807F9F77892B8BB95C9A0E9491
:100BB00085055C980E9485050895A0E0B0E0E3EE0D
:100BC000F5E00C942F09C82FD62EE42E80919501C4
:100BD000811105C081E0809395010E9423060E9447
:100BE0008F0514B1D5B1FAB00BB12898DD2011F002
:100BF0005A9A01C05A9894B1926394B9579A81E075
:100C0000E81629F08C2F82958F700E94BF058C2FDB
:100C10008F700E94BF05FAB80BB914B9D5B9CDB71A
:100C2000DEB7E7E00C944B0942E060E00E94DD058E
:100C3000089542E061E00E94DD05089541E060E032
:100C40000E94DD05089580E197E2A0E0B0E0809386
:100C50003F0190934001A0934101B0934201529A09
:100C6000209A549A8EE190E00E94310783E00E941E
:100C70001E0686E090E00E94310783E00E941E0677
:100C800082E090E00E94310783E00E941E0682E02D
:100C900090E00E94310782E00E941E0682E090E010
:100CA0000E94310788E20E94140688E00E94140620
:100CB00081E00E94140686E00E9414068CE00E94E7
:100CC00014060895CF93DF93EC018991882319F0DE
:100CD0000E941906FACFDF91CF9108950E94620613
:100CE0000895AAE0B0E0E7E7F6E00C942E091AE0D8
:100CF0005AE0C52ED12CE12CF12C062FA70196012C
:100D00000E94D408CA01B9011150E1E0F0E0EC0FF3
:100D1000FD1FE10FF11D005D2AE0629F0019112403
:100D20000083611571058105910539F71A3058F472
:100D3000E1E0F0E0EC0FFD1FE10FF11D80810E946A
:100D400019061F5FF3CF2A96E8E00C944A09CF9268
:100D5000DF92EF92FF926B017C0197FF0BC0F09442
:100D6000E094D094C094C11CD11CE11CF11C8DE214
:100D70000E941906C701B6010E947106FF90EF900C
:100D8000DF90CF9008950E94A7060895A5E0B0E0F7
:100D9000ECECF6E00C943309182F80E8898380ECA2
:100DA0008A8384E98B8384ED8C83FE01E60FF11D39
:100DB0008181810F6D830E941406109343016D8120
:100DC000609344012596E3E00C944F090E94C60607
:100DD00008952F928F939F932FB680914E019091FB
:100DE0004F01019680934E0190934F0190E08091C6
:100DF0005001891F80935001909148019C5F90930E
:100E000048018091470180519742C0F0909348017A
:100E1000809347018091490190914A010196809306
:100E2000490190934A0190E080914B01891F809382
:100E30004B0180914C01891F80934C012FBE9F91E3
:100E40008F912F90189528EE33E0019748F0F90123
:100E50006F9364E06A95F1F76F913197C9F7F5CF19
:100E600008950E9423070895E0E7F0E080818E7FD7
:100E70008083A0EBB0E08C9183608C93A1EBB0E019
:100E80008C91807F8C938C9182608C93B89A8081B6
:100E9000816080837894089580919601811105C0C6
:100EA00081E0809396010E94340708950E944C07C8
:100EB000E0E7F0E080818E7F80836091490170914E
:100EC0004A0180914B0190914C0120812160208347
:100ED00008950E94560708950E944C07E0E7F0E04D
:100EE00080818E7F80831092490110924A01109276
:100EF0004B0110924C0110924801109247018081E1
:100F00008160808308950F93CF93DF9300D000D04A
:100F10001F92CDB7DEB79C0185E0E8E2F1E0DE018B
:100F2000119601900D928A95E1F7662311F00FEF6B
:100F300001C003E145E0BE016F5F7F4F81E591E0B5
:100F40000E94410881E591E00E942C080E946C07F4
:100F50000F900F900F900F900F90DF91CF910F9106
:100F6000089560E00E948307089581E591E00E9462
:100F7000960808956F9364E06A95F1F76F91019771
:100F8000C9F70895FC011182108213821282158222
:100F900014821682683068F489E290E0918380833D
:100FA0008BE290E0938382838AE290E0958384834E
:100FB0001FC06E3070F483E290E09183808385E2FD
:100FC00090E09383828384E290E0958384836850E9
:100FD0000FC0653198F486E290E09183808388E2C7
:100FE00090E09383828387E290E0958384836E50C0
:100FF00081E001C0880F6A95EAF786830895A7E02B
:10100000B0E0E5E0F8E00C9432098C01FC011182BB
:101010001082138212821582148217821682613125
:1010200018F080E1808702C0FC016087F801208B06
:10103000642FCE0101960E94C2078F81F80181873B
:101040008B819C81938782878D819E819587848700
:101050002796E4E00C944E09FC01A485B585109711
:1010600079F08C919185892B8C93A285B3859C9185
:101070008185809589238C9388EC90E00E94BA0743
:101080000895A7E0B0E0E7E4F8E00C9427097C01BC
:101090004B01642F3901402F20E00E94FF07870198
:1010A0000F5B1F4FF80110826701F2E4CF0ED11CD5
:1010B000F60110825701F3E4AF0EB11CF501108266
:1010C000F70177866686512CF7018085581650F512
:1010D000652C712CF401E60DF71D6081CE0101969F
:1010E0000E94C2072F81F701E60DF71D218B898130
:1010F0009A81F301EE0FFF1FEE0DFF1D92A381A356
:101100008332910511F4F80108C08632910511F47B
:10111000F60103C0899721F4F5018081822B808339
:101120005394D2CF2796EFE00C944309CF93DF93EB
:10113000EC018A819B81009711F00E94F9098E8150
:101140009F81009711F00E94F90988819981009789
:1011500011F00E94F9098C819D81009711F00E9485
:10116000F909DF91CF910895991B79E004C0991F87
:10117000961708F0961B881F7A95C9F780950895F1
:10118000AA1BBB1B51E107C0AA1FBB1FA617B707AD
:1011900010F0A61BB70B881F991F5A95A9F78095C9
:1011A0009095BC01CD010895A1E21A2EAA1BBB1B8C
:1011B000FD010DC0AA1FBB1FEE1FFF1FA217B30723
:1011C000E407F50720F0A21BB30BE40BF50B661F39
:1011D000771F881F991F1A9469F7609570958095FD
:1011E00090959B01AC01BD01CF010895052E97FBA1
:1011F0001EF400940E940D0957FD07D00E94D408E8
:1012000007FC03D04EF40C940D0950954095309591
:1012100021953F4F4F4F5F4F089590958095709562
:1012200061957F4F8F4F9F4F0895A29FB001B39F4D
:10123000C001A39F700D811D1124911DB29F700DDF
:10124000811D1124911D08952F923F924F925F921C
:101250006F927F928F929F92AF92BF92CF92DF92C6
:10126000EF92FF920F931F93CF93DF93CDB7DEB72B
:10127000CA1BDB0B0FB6F894DEBF0FBECDBF0994BF
:101280002A88398848885F846E847D848C849B8416
:10129000AA84B984C884DF80EE80FD800C811B8124
:1012A000AA81B981CE0FD11D0FB6F894DEBF0FBE53
:1012B000CDBFED010895EE0FFF1F0590F491E02DD5
:1012C00009940F931F93CF93DF938230910510F40D
:1012D00082E090E0E0919901F0919A0120E030E005
:1012E000A0E0B0E0309719F1408151810281138173
:1012F00048175907C8F08417950769F4109731F01B
:1013000012960C93129713961C9327C00093990181
:1013100010939A0122C02115310519F04217530785
:1013200018F49A01BD01EF01DF01F801DBCF2115AF
:101330003105F9F0281B390B2430310580F48A81FE
:101340009B816115710521F0FB019383828304C0A9
:1013500090939A0180939901FE01329644C0FE0158
:10136000E20FF31F8193919322503109398328832F
:101370003AC02091970130919801232B41F420919C
:101380000C0130910D013093980120939701209129
:101390000A0130910B012115310541F42DB73EB7FB
:1013A00040910E0150910F01241B350BE0919701E4
:1013B000F0919801E217F307A0F42E1B3F0B2817BA
:1013C000390778F0AC014E5F5F4F2417350748F0BE
:1013D0004E0F5F1F50939801409397018193919313
:1013E00002C0E0E0F0E0CF01DF91CF911F910F91BB
:1013F0000895CF93DF93009709F481C0FC013297E1
:1014000013821282A0919901B0919A01109781F4F0
:1014100020813181820F931F209197013091980193
:101420002817390751F5F0939801E093970167C0A9
:10143000ED0120E030E0CE17DF0740F44A815B8108
:101440009E0141155105F1F0EA01F5CFD383C28326
:1014500040815181840F951FC817D90759F488819D
:101460009981840F951F0296918380838A819B8145
:10147000938382832115310529F4F0939A01E09337
:1014800099013DC0E901FB83EA8349915991C40F59
:10149000D51FEC17FD0761F480819181840F951FA2
:1014A0000296E90199838883828193819B838A8351
:1014B000E0E0F0E012968D919C911397009719F05F
:1014C000FD01DC01F7CF8D919C9111979D012E5F5D
:1014D0003F4F820F931F2091970130919801281759
:1014E000390769F4309729F410929A011092990102
:1014F00002C013821282B0939801A0939701DF91EA
:10150000CF91089510E0C9E3D0E004C0FE010E942D
:0E1510005B092196CA33D107C9F7F894FFCFC3
:10151E000F00F4010400D007040100009B0120001D
:10152E009C01B501CF01EA010702260247026902BA
:10153E008E02B502DE020A030E0F101112416D6FFC
:06154E006E6720557300DA
:00000001FF
