S0170000655661646572732D73756D6F626F742E737265630D
S11300000C9462000C947F000C947F000C947F008D
S11300100C947F000C947F000C947F000C947F0060
S11300200C947F000C94A70A0C947F000C947F001E
S11300300C947F000C944F090C947F000C947F0067
S11300400C947F000C947F000C947F000C947F0030
S11300500C947F000C947F000C947F000C947F0020
S11300600C947F000C947F003E673332003E67336C
S113007032003E673332003E673332003E6733322C
S1130080003E673332003E6633323E3E6732300014
S11300903E6633323E3E673230003E6732303E3E8B
S11300A0663332003E6633323E3E673230003E668F
S11300B033323E3E673230003E6733323E3E633376
S11300C032007A0B11241FBECFEFD8E0DEBFCDBFC4
S11300D011E0A0E0B1E0ECE5F0E202C005900D9281
S11300E0A234B107D9F721E0A2E4B1E001C01D9226
S11300F0A03BB207E1F70E94BD020C9421100C94BE
S11301000000EF92FF920F931F93CF93DF93CDB72D
S1130110DEB72A970FB6F894DEBF0FBECDBF7C01C1
S11301208B0161E00E94410BF701808191819195DF
S1130130819591099A83898382819381919581958F
S113014091099C838B831E821D8286819781988767
S11301508F83808591859A87898780E090E020E06D
S113016030E00EC0FC01EE0FFF1F41E050E04C0FE9
S11301705D1FE40FF51F40815181240F351F019647
S1130180853091057CF3C8016AE070E00E945F0E3F
S1130190C9010E945F0ECB012A960FB6F894DEBF08
S11301A00FBECDBFDF91CF911F910F91FF90EF90C4
S11301B008950F931F93CF93DF93EC018B0161E0BC
S11301C00E94410B20E030E080E090E011C0F90192
S11301D0EE0FFF1FEC0FFD1F60817181A801445FCA
S11301E051406417750710F481E090E02F5F3F4F92
S11301F02530310564F3DF91CF911F910F9108955C
S1130200CF93DF93CDB7DEB727970FB6F894DEBF51
S11302100FBECDBF4BE250E05C834B832AE230E05B
S11302203E832D8381E08F839BB19E7F9BB9ED81BB
S1130230FE8160819F81962B9083E2E0F0E06F93D2
S113024064E06A95F1F76F913197C9F75C834B834A
S11302503E832D838F839BB191609BB9ED81FE8199
S113026060819F81962B9083EAE0F0E06F9364E0D5
S11302706A95F1F76F913197C9F75C834B833E839D
S11302802D838F838BB18E7F8BB9ED81FE8190811D
S11302908F81892B808389E290E09A83898382E02D
S11302A08F83499BF8CF60E070E0CB0104C06F5F9F
S11302B07F4F8F4F9F4F29E230E03A83298322E01A
S11302C02F834999F4CF0E94760526E933E44BE065
S11302D05DE30E94070620E030E040E05FE30E9417
S11302E007060E943E05CB0127960FB6F894DEBFA1
S11302F00FBECDBFDF91CF910895209120013091A1
S113030021012130310581F54091990150919A01E3
S113031020911E0130911F0142175307D4F010920F
S11303209A011092990120911C0130911D01409174
S1130330180150911901421753072CF4109221010E
S11303401092200106C02F5F3F4F30931D01209370
S11303501C012091990130919A012F5F3F4F3093F6
S11303609A012093990133C0232B89F54091990177
S113037050919A0120911E0130911F014217530799
S1130380E4F010929A011092990120911C0130918D
S11303901D0140911A0150911B01241735073CF4AB
S11303A021E030E0309321012093200106C0215048
S11303B0310930931D0120931C0120919901309142
S11303C09A012F5F3F4F30939A0120939901813016
S11303D0910549F460911C0170911D0188EC90E035
S11303E00E94640A0895892B41F468EC70E08091BE
S11303F01C0190911D010E94640A0895CF93DF931C
S1130400EC010E9400018C179D0754F46FEF70E01B
S11304108FEF90E00E94640A85E090E00E94EF0A6A
S1130420DF91CF910895CF93DF93EC01CB010E942C
S1130430640ACE010E94EF0ADF91CF910895CF9311
S1130440DF93EC01CB019195819591090E94640A97
S1130450CE010E94EF0ADF91CF910895CF93DF93ED
S1130460EC01CB0166277727681B790B0E94640A8D
S1130470CE010E94EF0ADF91CF91089580919F01F0
S11304809091A0018E319105B8F48091A3019091CF
S1130490A401009739F46FEF70E080E090E00E94CF
S11304A01F0261C0019709F05EC06FEF70E080E049
S11304B090E00E942E0257C09C012E513109223334
S11304C03105B8F48091A3019091A401009739F407
S11304D066E970E08FEF90E00E94640A44C00197DF
S11304E009F041C06FEF70E086E990E00E94640A71
S11304F03AC09C01205531092837310548F50E943E
S1130500000120912201309123018217930754F4B2
S1130510C9010E94FE0180E590E09093A0018093C0
S11305209F0121C08091A3019091A401009739F407
S113053060E570E080E090E00E942E0214C0019714
S113054091F460E570E080E090E00E941F020BC02F
S1130550883C910544F01092A2011092A1011092DE
S1130560A00110929F0180919F019091A00101969A
S11305709093A00180939F010895CF93DF93CDB70B
S1130580DEB765970FB6F894DEBF0FBECDBF88EB1C
S113059090E00E94AE094BE250E05E874D872AE26C
S11305A030E0388B2F8781E0898B8BB18E7F8BB9BC
S11305B0EF85F88990818989892B80835E874D87AF
S11305C0388B2F8782E0898B8AB18D7F8AB9ED853C
S11305D0FE858081998990958923808380ED97E0B9
S11305E00E94760B0E94270B6B017C0182E30E9420
S11305F0A40A8230A1F58EEA90E00E94AE0984EF4D
S113060091E00E94EF0A82E30E94A40A182F84EA70
S113061090E00E94AE09123039F481E090E09093AA
S113062017018093160116C0103139F482E090E06E
S113063090931701809316010DC0103239F483E0B2
S113064090E0909317018093160104C01092170153
S11306501092160184EF91E00E94EF0A08C08AE923
S113066090E00E94AE0984EF91E00E94EF0A82E3D9
S11306700E94A40A182F80E990E00E94AE0912306B
S113068059F481E090E090939E0180939D01109233
S11306909C0110929B0113C0103129F410929E0109
S11306A010929D010CC0103251F481E090E09093BF
S11306B09E0180939D0190939C0180939B0184EF04
S11306C091E00E94EF0A82E30E94A40A182F86E8B0
S11306D090E00E94AE09123059F481E090E09093CA
S11306E0A6018093A5011092A4011092A30113C046
S11306F0103129F41092A6011092A5010CC01032F9
S113070051F481E090E09093A6018093A501909329
S1130710A4018093A30181E890E00E94AE0988EED1
S113072093E00E94EF0A8CE790E00E94AE0988EE05
S113073093E00E94EF0A87E790E00E94AE0988EEFA
S113074093E00E94EF0A82E790E00E94AE0988EEEF
S113075093E00E94EF0A8DE690E00E94AE0988EED5
S113076093E00E94EF0A88E690E00E94AE0980912F
S11307701601909117018230910581F08330910523
S1130780C1F0019701F560911401709115018091F8
S11307901001909111010E941F0215C06091140173
S11307A07091150180911201909113010E941F0212
S11307B00AC060911401709115018091100190910B
S11307C011010E942E02812C912C54011A8A1B8A39
S11307D01C8A1D8A4CC060ED77E0CE0101960E9410
S11307E081001092A2011092A1011092A001109216
S11307F09F012DE0289FB001299F700D11246F3FA8
S1130800710519F014F06FEF70E061308FEF780725
S113081014F461E07FEFCB010197C19710F462E318
S113082070E0CB01C196C19710F46EEC7FEF772393
S11308302CF48AE090E00E942E0219C016161706C6
S113084044F47195619571098AE090E00E941F0259
S11308500EC0672B61F468E37FEF81E09FEF0E9495
S1130860640A05C073016201812C912C540160ED6E
S113087077E0CE0101960E94D900019709F4ABCF2D
S11308800E940001209122013091230182179307D5
S1130890BCF48091A5019091A601019739F481E0FF
S11308A090E09093A2018093A10103C0C9010E942A
S11308B0FE0181E090E09093A8018093A70104C019
S11308C01092A8011092A7010E94270B2B013C0152
S11308D0DC01CB018C199D09AE09BF096C017D01B6
S11308E0BC01CD010E94760520E030E040E85DE3E4
S11308F00E9407069B01AC016A897B898C899D89CA
S11309000E94D2046A8B7B8B8C8B9D8B8C0C9D1CE0
S1130910AE1CBF1C20E030E040E85FE30E9402060A
S11309208823A4F18091A1019091A201019719F467
S11309300E943E021DC08091A7019091A8010197D9
S1130940B9F01092A00110929F0180919D019091A5
S11309509E01019739F480919B0190919C010E9422
S11309607D0106C068E770E080E090E00E94130219
S113097020E030E040E85FE36A897B898C899D89C7
S11309800E94D1046A8B7B8B8C8B9D8B98EE89168D
S113099093E09906A104B1040CF064CF73016201E1
S11309A066CF5058BB27AA270E94E9040C94C805B7
S11309B00E94BA0538F00E94C10520F039F49F3F27
S11309C019F426F40C94B7050EF4E095E7FB0C94A7
S11309D0B105E92F0E94D90558F3BA1762077307C6
S11309E08407950720F079F4A6F50C94FB050EF422
S11309F0E0950B2EBA2FA02D0B01B90190010C012B
S1130A00CA01A0011124FF27591B99F0593F50F442
S1130A10503E68F11A16F040A22F232F342F44279A
S1130A20585FF3CF469537952795A795F040539592
S1130A30C9F77EF41F16BA0B620B730B840BBAF062
S1130A409150A1F0FF0FBB1F661F771F881FC2F7CD
S1130A500EC0BA0F621F731F841F48F487957795E1
S1130A606795B795F7959E3F08F0B0CF9395880F9B
S1130A7008F09927EE0F9795879508950E944505EC
S1130A806894B1110C94FC0508950E94E10588F066
S1130A909F5798F0B92F9927B751B0F0E1F0660F3E
S1130AA0771F881F991F1AF0BA95C9F714C0B1307F
S1130AB091F00E94FB05B1E008950C94FB05672FAB
S1130AC0782F8827B85F39F0B93FCCF386957795AE
S1130AD06795B395D9F73EF4909580957095619597
S1130AE07F4F8F4F9F4F0895E89409C097FB3EF4C2
S1130AF090958095709561957F4F8F4F9F4F992367
S1130B00A9F0F92F96E9BB279395F69587957795E4
S1130B106795B795F111F8CFFAF4BB0F11F460FFA4
S1130B201BC06F5F7F4F8F4F9F4F16C0882311F0FC
S1130B3096E911C0772321F09EE8872F762F05C010
S1130B40662371F096E8862F70E060E02AF09A95AB
S1130B50660F771F881FDAF7880F9695879597F9A0
S1130B60089597F99F6780E870E060E008959FEF2B
S1130B7080EC089500240A94161617061806090630
S1130B80089500240A9412161306140605060895FF
S1130B90092E0394000C11F4882352F0BB0F40F487
S1130BA0BF2B11F460FF04C06F5F7F4F8F4F9F4FC7
S1130BB0089557FD9058440F551F59F05F3F71F049
S1130BC04795880F97FB991F61F09F3F79F08795B0
S1130BD00895121613061406551FF2CF4695F1DF39
S1130BE008C0161617061806991FF1CF86957105C9
S1130BF0610508940895E894BB2766277727CB01FD
S1130C0097F908950E94740608F48FEF08950E94DE
S1130C101A060C94C8050E94BA0538F00E94C10552
S1130C2020F0952311F00C94B1050C94B705112410
S1130C300C94FC050E94D90570F3959FC1F3950FA0
S1130C4050E0551F629FF001729FBB27F00DB11D4C
S1130C50639FAA27F00DB11DAA1F649F6627B00DDC
S1130C60A11D661F829F2227B00DA11D621F739FC5
S1130C70B00DA11D621F839FA00D611D221F749FD3
S1130C803327A00D611D231F849F600D211D822F1A
S1130C90762F6A2F11249F5750409AF0F1F0882341
S1130CA04AF0EE0FFF1FBB1F661F771F881F91506E
S1130CB05040A9F79E3F510580F00C94B1050C9467
S1130CC0FC055F3FE4F3983ED4F3869577956795EA
S1130CD0B795F795E7959F5FC1F7FE2B880F911D98
S1130CE09695879597F90895990F0008550FAA0BC3
S1130CF0E0E8FEEF16161706E807F907C0F012162B
S1130D001306E407F50798F0621B730B840B950B2D
S1130D1039F40A2661F0232B242B252B21F4089582
S1130D200A2609F4A140A6958FEF811D811D08951F
S1130D3090914701E0914201F0914301992311F010
S1130D40849101C080812FEB280F2A3110F4805E3A
S1130D500895803249F49F012F5F3F4F3093430140
S1130D6020934201EF2B31F708951F93CF93DF9324
S1130D700E949806C0E0D0E01AE090ED980F9A30F7
S1130D80B8F49E01129FE001139FD00D1124C80FE7
S1130D90D11D87FDDA95E09780914201909143013E
S1130DA0019690934301809342010E949806E5CFF7
S1130DB0CE01DF91CF911F91089510926F0083E2CD
S1130DC08093800081E1809381001092820080E111
S1130DD097E2909389008093880010928B00109280
S1130DE08A00229A789408958F929F92AF92BF922C
S1130DF0DF92EF92FF920F931F93CF93DF935C01E7
S1130E008B01D42E80914401811105C081E080932F
S1130E1044010E94DD0610920901B7FE05C0E89462
S1130E20B7F82AE0F22E02C0FF24F394E090810088
S1130E302E2D287FE22E48ECF49EC00111248A1541
S1130E409B05E0F4E50151E1A51657E2B50610F063
S1130E50C0E1D7E2BE017695679580E090E06058E6
S1130E60794687469F4F4E01A12CB12CA5019401D0
S1130E700E94730E59018E2D816024C0C8E2FC9E2D
S1130E80C02D1124D0E0CA15DB0508F4E501BE012C
S1130E90769567959E0140E050E08AE0F81207C01D
S1130EA080E090E0605E734481449F4F06C080E020
S1130EB090E060537D4E8C4E9F4F0E94730E5901FB
S1130EC08E2D8260882E2AE0F21207C0CE0105968C
S1130ED06AE070E00E944B0EEB01C83E43E0D40789
S1130EE059F09801DE010E94B40E28EE33E040E090
S1130EF050E00E94950E890110926F00809281004B
S1130F00B0928900A09288002091880030918900D5
S1130F104D2D403108F04FE080E190E0841B9109B1
S1130F20A90102C0569547958A95E2F750938B0024
S1130F3040938A0010934A010093490186B38FEFCE
S1130F4086BB81E080936F00DF91CF911F910F9159
S1130F50FF90EF90DF90BF90AF909F908F90089597
S1130F60CF93DF93EB018F3F11F0411105C040E0B7
S1130F70BE0188EE93E043C0813130F050EF580F4A
S1130F80503618F05FE501C050E0852F6CE00E94F8
S1130F903F0E682F74EF760390011124250F311D45
S1130FA02C30310540F4F901EE0FFF1FEC5DFE4FCC
S1130FB02081318102C020E030E0873081F0082EAA
S1130FC002C0220F331F0A94E2F7823028F0C901CD
S1130FD005966AE070E00CC0C90190580CC0C901C4
S1130FE036E0880F991F3A95E1F7029665E070E0C4
S1130FF00E944B0ECB01403108F04FE0BE010E942D
S1131000F406DF91CF910895A2E0B0E0EAE0F8E0C1
S11310100C94C50E9090080180914601882321F01C
S113102060914501611117C077247394B0ECAB2E25
S1131030BDE5BB2E1AE0612E04E0802E80EDC82EA3
S113104087E0D82E94E0E92EF12C04EF11E02FE094
S1131050422E512C15C070E040E088EE93E00E94CF
S1131060F4061092450117C18636D4F5813609F489
S1131070A9C07CF58C3309F460C08E3381F4939459
S11310800E94980620914201309143012F5F3F4F07
S11310903093430120934201853631F752C08132A7
S11310A009F08BC080920801D0920701C09206011A
S11310B0F0920501E09204011093030100930201F0
S11310C0509201014092000110924601A4E09A2E30
S11310D0D7CF8336A1F10CF478C010E082E077C05A
S11310E08D36C1F194F4873691F174F18C3609F0A0
S11310F064C00E94B506BC0190930501809304016D
S1131100809106019091070151C08237C9F14CF4D6
S11311108F3609F052C00E94B506982E80930801BC
S1131120AFCF843781F1863709F047C00E94B506F6
S11311309093010180930001A3CF9A94A1CF10E072
S113114020C010E084E043C010E085E040C010E01F
S113115087E03DC00E9498068C3619F4109246012F
S113116004C07092460110924501209142013091D1
S113117043012F5F3F4F309343012093420180CFBF
S113118011E080E024C00E94B506BC01C5010E94A4
S11311904B0E669EC001679E900D1124909307012B
S11311A08093060160910401709105010E944B0E29
S11311B0709303016093020163CF10924301109274
S11311C0420169C010E089E002C010E08BE0082F02
S11311D09CE0999E000D11240E949806982F977FF9
S11311E0933261F420914201309143012F5F3F4FCC
S11311F030934301209342010F5FEECF8D3271F49F
S113120020914201309143012F5F3F4F30934301BE
S11312102093420101500E949806F0CF6091020190
S1131220709103018153883050F4E0900601F090EE
S113123007010E94B506BC01C7010E944B0E7B0149
S1131240F694E79469837A830E94980669817A8187
S11312508E3269F420914201309143012F5F3F4F58
S113126030934301209342016E0D7F1DE9CF80919D
S11312704601882339F09B01369527952093450133
S1131280621B710940910001112311F08FEF01C01D
S1131290802F0E94B0072296E0E10C94E10E1F9289
S11312A00F920FB60F9211242F933F934F935F9396
S11312B06F937F938F939F93AF93BF93EF93FF931A
S11312C08091490190914A019C0121503109309348
S11312D04A0120934901892B11F510926F007894EB
S11312E080918100887F81608093810080E197E212
S11312F0909389008093880010928B0010928A004A
S113130081E0809309018091420190914301892BEE
S113131031F080914801811102C00E940408FF91BC
S1131320EF91BF91AF919F918F917F916F915F9159
S11313304F913F912F910F900FBE0F901F901895D2
S113134010926F00909343018093420181E0809357
S11313504701109245010E94040808950E94A009C3
S11313600895883058F491E001C0990F8A95EAF7FE
S1131370892FAAE2B0E0EBE2F0E021C08E3060F405
S113138098EF980F81E001C0880F9A95EAF7A4E2DC
S1131390B0E0E5E2F0E013C0853160F492EF980F1D
S11313A081E001C0880F9A95EAF7A7E2B0E0E8E28D
S11313B0F0E005C080E0A0E0B0E0E0E0F0E06F3FE6
S11313C019F49081982709C0662319F09081982B0D
S11313D004C02081982F9095922390839C91982B00
S11313E09C93089583EF8093B00084BD82E0809342
S11313F0B10085BD1092B4001092B30018BC17BCA4
S113140060E086E00E94B10960E085E00E94B109D5
S113141060E08BE00E94B10960E083E00E94B109C2
S113142008958091A901811105C081E08093A901EB
S11314300E94F2090895CF93DF93EC010E94110AF0
S1131440D7FF05C0D195C195D10981E001C080E0E5
S1131450CF3FD10519F014F0CFEFD0E0882319F075
S113146018BCC7BD02C0C8BD17BCDF91CF91089599
S1131470CF93DF93EC010E94110AD7FF05C0D195E9
S1131480C195D10981E001C080E0CF3FD10519F0B9
S113149014F0CFEFD0E0882329F01092B400C09369
S11314A0B30004C0C093B4001092B300DF91CF9195
S11314B00895CF93DF93EB010E941B0ACE010E9493
S11314C0380ADF91CF9108950E94590A089584B192
S11314D08D7C84B985B1826385B985E090E06F9392
S11314E064E06A95F1F76F910197C9F708958091C7
S11314F0AA01811105C081E08093AA010E94670AB4
S113150008951F93CF93DF93182F0E94770AC12F5A
S1131510D0E023B130E0209530952C233D23232BBC
S1131520C1F38AE090E00E94EF0A23B130E02095F5
S113153030952C233D23232B61F383B180958123A4
S1131540DF91CF911F9108950E94810A08952F92EF
S11315508F939F932FB680915201909153010196DE
S1131560809352019093530190E080915401891F1C
S11315708093540190914C019C5F90934C01809115
S11315804B0180519742C0F090934C0180934B01E2
S113159080914D0190914E01019680934D0190935D
S11315A04E0190E080914F01891F80934F018091FB
S11315B05001891F809350012FBE9F918F912F90CE
S11315C0189528EE33E0019748F0F9016F9364E031
S11315D06A95F1F76F913197C9F7F5CF08950E9495
S11315E0E10A0895E0E7F0E080818E7F8083A0EB3C
S11315F0B0E08C9183608C93A1EBB0E08C91807F00
S11316008C938C9182608C93B89A80818160808362
S1131610789408958091AB01811105C081E0809395
S1131620AB010E94F20A08950E940A0BE0E7F0E081
S113163080818E7F808360914D0170914E018091F5
S11316404F019091500120812160208308950E94D0
S1131650140B08950E940A0BE0E7F0E080818E7F6E
S1131660808310924D0110924E0110924F011092FE
S1131670500110924C0110924B0180818160808353
S11316800895462FBC0185E591E00E94C40D08959C
S11316900F93CF93DF9300D000D01F92CDB7DEB766
S11316A09C0185E0ECE3F1E0DE01119601900D92DE
S11316B08A95E1F7662311F00FEF01C003E145E0DD
S11316C0BE016F5F7F4F85E591E00E941A0C85E5AE
S11316D091E00E94F10B0E942A0B0F900F900F9043
S11316E00F900F90DF91CF910F91089560E00E94C9
S11316F0480B089585E591E00E94210E08956F93AB
S113170064E06A95F1F76F910197C9F70895FC01B8
S1131710118210821382128215821482168268301A
S113172068F489E290E0918380838BE290E0938374
S113173082838AE290E0958384831FC06E3070F4C4
S113174083E290E09183808385E290E093838283B7
S113175084E290E09583848368500FC0653198F4E7
S113176086E290E09183808388E290E09383828391
S113177087E290E0958384836E5081E001C0880FF6
S11317806A95EAF786830895A7E0B0E0EAECFBE007
S11317900C94D10E8C01FC011182108213821282EE
S11317A01582148217821682613118F080E18087D5
S11317B002C0FC016087F801208B642FCE010196E2
S11317C00E94870B8F81F80181878B819C8193878D
S11317D082878D819E81958784872796E4E00C9487
S11317E0ED0EFC01A485B585109779F08C91918557
S11317F0892B8C93A285B3859C91818580958923BF
S11318008C9388EC90E00E947F0B0895FC01A485E2
S1131810B585109771F08C919185892B8C93A28555
S1131820B3858C919185892B8C9388EC90E00E94F0
S11318307F0B0895A7E0B0E0E0E2FCE00C94C60E54
S11318407C014B01642F3901402F20E00E94C40B1E
S113185087010F5B1F4FF80110826701F2E4CF0E7E
S1131860D11CF60110825701F3E4AF0EB11CF5014F
S11318701082F70177866686512CF7018085581609
S113188050F5652C712CF401E60DF71D6081CE0135
S113189001960E94870B2F81F701E60DF71D218B1E
S11318A089819A81F301EE0FFF1FEE0DFF1D92A3B4
S11318B081A38332910511F4F80108C086329105A1
S11318C011F4F60103C0899721F4F5018081822B7C
S11318D080835394D2CF2796EFE00C94E20EA0E0DD
S11318E0B0E0E5E7FCE00C94C80EEC015B016C0190
S11318F081E4C80ED11CF60180807E01F2E4EF0E73
S1131900F11CF70170808E010D5B1F4FF801908070
S113191080E09885891748F4F501E80FF11DE80F78
S1131920F11D118210828F5FF4CF84B1F601908192
S1131930892B84B987B1F7019081892B87B98AB142
S1131940F8019081892B8AB985B1F6019081892BA0
S113195085B988B1F7019081892B88B98BB1F801D9
S11319609081892B8BB98AE090E00E947F0B94B11F
S1131970F60180818095892384B997B1F70180812C
S11319808095892387B99AB1F8018081809589234C
S11319908AB995B1F60180818095892385B998B17A
S11319A0F70180818095892388B99BB1F8018081F2
S11319B0809589238BB9E090B000D090B1008091DC
S11319C0B00083608093B00082E08093B1004091C6
S11319D0B20080E090E02E853F858217930720F5C2
S11319E0C090B2002C2D241B820F911D03B108114D
S11319F032C0F6B0F7102FC029B129112CC010C085
S1131A00212F30E0A901440F551FF501E40FF51F04
S1131A1060817181672B21F11F5F2885121780F384
S1131A207F2C802E4C2DD7CFE092B000D092B10005
S1131A3020E08885281730F5F501E20FF11DE20F4B
S1131A40F11D80819181892B21F48E859F8591835D
S1131A5080832F5FEECF03B1F6B099B010E0DDCFF5
S1131A60DE01A40FB51F91960D90BC91A02D4C9151
S1131A70DE01A20FB31F51962C91422369F6918384
S1131A808083CACFCDB7DEB7EDE00C94E40EEF92BD
S1131A90FF920F931F93CF93DF93FC019B01F09070
S1131AA07C0000917A0047B118B180917A0086FDDC
S1131AB0FCCF80E09085891748F4D901A80FB11DA7
S1131AC0A80FB11D1D921C928F5FF4CF97B182A114
S1131AD08095892387B998B182A18095892388B993
S1131AE087E880937A00E12C81A1E81610F0E12CBC
S1131AF029C050E08085581718F5A52FB0E0EF01F4
S1131B00CA0FDB1F8989806480937C0080917A00EE
S1131B10806480937A0080917A0086FDFCCF609186
S1131B20780070917900AA0FBB1FA20FB31F8D918B
S1131B309C911197860F971F8D939C935F5FDACFCB
S1131B40E394D2CF8085E816A0F4E901CE0DD11D2F
S1131B50CE0DD11D61A170E0CB0195958795A8812B
S1131B60B9818A0F9B1F0E944B0E79836883E3948B
S1131B70E9CFF0927C0000937A0018B947B9CDB749
S1131B80DEB7E6E00C94EB0EA0E2B0E0EAECFDE098
S1131B900C94CE0E8C017B01D42E8FEF840F8230F7
S1131BA018F4C8010E94060CD80150968C91B70114
S1131BB0811110C0C8010E946F0CC8010E94F10B72
S1131BC0B2E0DB123AC0BE016F5F7F4FC8010E94D2
S1131BD06F0C0FC0C8010E94470DC8010E94F10B91
S1131BE0E2E0DE122AC0BE016F5F7F4FC8010E948F
S1131BF0470D40E0F80180854817F8F4842F90E001
S1131C00880F991FF701E80FF91F21E030E02C0F2E
S1131C103D1F820F931FD8011E962D913C911F9753
S1131C20DC018D919C91281B390B80819181820F5D
S1131C30931F918380834F5FDDCFA096E7E00C94E0
S1131C40EA0ECF93DF93EC018A819B81009711F018
S1131C500E94980F8E819F81009711F00E94980F27
S1131C6088819981009711F00E94980F8C819D8141
S1131C70009711F00E94980FDF91CF910895991B5E
S1131C8079E004C0991F961708F0961B881F7A956F
S1131C90C9F780950895AA1BBB1B51E107C0AA1F71
S1131CA0BB1FA617B70710F0A61BB70B881F991FF9
S1131CB05A95A9F780959095BC01CD01089597FB9D
S1131CC0072E16F4009407D077FD09D00E944B0E1E
S1131CD007FC05D03EF4909581959F4F089570952B
S1131CE061957F4F0895A1E21A2EAA1BBB1BFD012B
S1131CF00DC0AA1FBB1FEE1FFF1FA217B307E407E7
S1131D00F50720F0A21BB30BE40BF50B661F771F3E
S1131D10881F991F1A9469F760957095809590951E
S1131D209B01AC01BD01CF010895052E97FB1EF464
S1131D3000940E94AC0E57FD07D00E94730E07FC5E
S1131D4003D04EF40C94AC0E5095409530952195EB
S1131D503F4F4F4F5F4F08959095809570956195D3
S1131D607F4F8F4F9F4F0895A29FB001B39FC00133
S1131D70A39F700D811D1124911DB29F700D811DB3
S1131D801124911D08952F923F924F925F926F926A
S1131D907F928F929F92AF92BF92CF92DF92EF92F7
S1131DA0FF920F931F93CF93DF93CDB7DEB7CA1B78
S1131DB0DB0B0FB6F894DEBF0FBECDBF09942A88A3
S1131DC0398848885F846E847D848C849B84AA844B
S1131DD0B984C884DF80EE80FD800C811B81AA81D8
S1131DE0B981CE0FD11D0FB6F894DEBF0FBECDBFA3
S1131DF0ED010895EE0FFF1F0590F491E02D099475
S1131E000F931F93CF93DF938230910510F482E0F8
S1131E1090E0E091AE01F091AF0120E030E0A0E06D
S1131E20B0E0309719F14081518102811381481744
S1131E305907C8F08417950769F4109731F0129682
S1131E400C93129713961C9327C00093AE01109322
S1131E50AF0122C02115310519F04217530718F4B8
S1131E609A01BD01EF01DF01F801DBCF2115310536
S1131E70F9F0281B390B2430310580F48A819B81C9
S1131E806115710521F0FB019383828304C0909353
S1131E90AF018093AE01FE01329644C0FE01E20F11
S1131EA0F31F8193919322503109398328833AC0D7
S1131EB02091AC013091AD01232B41F420910C0110
S1131EC030910D013093AD012093AC0120910A01B2
S1131ED030910B012115310541F42DB73EB74091E6
S1131EE00E0150910F01241B350BE091AC01F091D0
S1131EF0AD01E217F307A0F42E1B3F0B2817390797
S1131F0078F0AC014E5F5F4F2417350748F04E0F51
S1131F105F1F5093AD014093AC018193919302C034
S1131F20E0E0F0E0CF01DF91CF911F910F91089590
S1131F30CF93DF93009709F481C0FC013297138299
S1131F401282A091AE01B091AF01109781F420816B
S1131F503181820F931F2091AC013091AD0128177C
S1131F60390751F5F093AD01E093AC0167C0ED0181
S1131F7020E030E0CE17DF0740F44A815B819E0108
S1131F8041155105F1F0EA01F5CFD383C2834081B5
S1131F905181840F951FC817D90759F488819981F5
S1131FA0840F951F0296918380838A819B819383FA
S1131FB082832115310529F4F093AF01E093AE013A
S1131FC03DC0E901FB83EA8349915991C40FD51FB0
S1131FD0EC17FD0761F480819181840F951F0296AF
S1131FE0E90199838883828193819B838A83E0E0DA
S1131FF0F0E012968D919C911397009719F0FD01D2
S1132000DC01F7CF8D919C9111979D012E5F3F4F7D
S1132010820F931F2091AC013091AD01281739072D
S113202069F4309729F41092AF011092AE0102C006
S113203013821282B093AD01A093AC01DF91CF91D2
S1132040089510E0C1E6D0E004C0FE010E94FA0E3B
S10F20502196C236D107C9F7F894FFCFDF
S113205C0F00F4010400D00704010000B0012000BB
S113206CB400DC00FF00010096003C0032000200CA
S113207C010050009C01B501CF01EA0107022602C0
S113208C470269028E02B502DE020A030E0F10111A
S105209C12002C
S9030000FC
