:100000000C9449000C9466000C9466000C946600F5
:100010000C9466000C9466000C9466000C946600C8
:100020000C9466000C94CB070C9466000C9466004C
:100030000C9466000C9458060C9466000C946600B0
:100040000C9466000C9466000C9466000C94660098
:100050000C9466000C9466000C9466000C94660088
:100060000C9466000C9466003E673332003E6733A2
:1000700032003E673332003E673332003E67333230
:10008000003E673332003E6733323E3E6333320018
:100090009E0811241FBECFEFD8E0DEBFCDBF11E018
:1000A000A0E0B1E0E4EAFAE102C005900D92AE32C0
:1000B000B107D9F721E0AEE2B1E001C01D92AC3842
:1000C000B207E1F70E9412010C94450D0C94000058
:1000D000EF92FF920F931F93CF93DF93CDB7DEB7CD
:1000E0002A970FB6F894DEBF0FBECDBF7C018B01FF
:1000F00061E00E946508F701808191819195819569
:1001000091099A838983828193819195819591093F
:100110009C838B831E821D828681978198878F8323
:10012000808591859A87898780E090E020E030E0A3
:100130000EC0FC01EE0FFF1F41E050E04C0F5D1FB1
:10014000E40FF51F40815181240F351F0196853042
:1001500091057CF3C8016AE070E00E94830BC9013D
:100160000E94830BCB012A960FB6F894DEBF0FBE18
:10017000CDBFDF91CF911F910F91FF90EF90089528
:100180000F931F93CF93DF93EC018B0161E00E94EB
:10019000650820E030E080E090E011C0F901EE0F4A
:1001A000FF1FEC0FFD1F60817181A801445F51406A
:1001B0006417750710F481E090E02F5F3F4F253002
:1001C000310564F3DF91CF911F910F910895CF9383
:1001D000DF93EC01CB010E946D07CE010E94130852
:1001E000DF91CF910895CF93DF93EC01CB019195EF
:1001F000819591090E946D07CE010E941308DF913D
:10020000CF910895CF93DF93EC01CB016627772739
:10021000681B790B0E946D07CE010E941308DF91C5
:10022000CF910895CF93DF93CDB7DEB765970FB623
:10023000F894DEBF0FBECDBF86E890E00E94B706FF
:100240004BE250E05E874D872AE230E0388B2F8703
:1002500081E0898B8BB18E7F8BB9EF85F889908196
:100260008989892B80835E874D87388B2F8782E031
:10027000898B8AB18D7F8AB9ED85FE8580819989C8
:1002800090958923808380ED97E00E949A080E94D0
:100290004B086B017C0182E00E94C80781E890E076
:1002A0000E94B70688EE93E00E9413088CE790E066
:1002B0000E94B70688EE93E00E94130887E790E05B
:1002C0000E94B70688EE93E00E94130882E790E050
:1002D0000E94B70688EE93E00E9413088DE690E036
:1002E0000E94B70688EE93E00E94130888E690E02B
:1002F0000E94B706812C912C54011A8A1B8A1C8AF1
:100300001D8A38C060ED77E0CE0101960E9468003A
:100310002DE0289FB001299F700D11246F3F7105BA
:1003200019F014F06FEF70E061308FEF780714F47C
:1003300061E07FEF77232CF48AE090E00E940201D5
:1003400019C01616170644F47195619571098AE073
:1003500090E00E94F3000EC0672B61F46CE97FEF20
:1003600081E09FEF0E946D0705C073016201812C3F
:10037000912C540160ED77E0CE0101960E94C000FF
:10038000019709F4BFCF0E944B082B013C01DC010F
:10039000CB018C199D09AE09BF096C017D01BC011F
:1003A000CD010E947F0220E030E040E85DE30E9442
:1003B00010039B01AC016A897B898C899D890E940D
:1003C00011026A8B7B8B8C8B9D8B8C0C9D1CAE1CC5
:1003D000BF1C20E030E040E85FE30E940B0388236D
:1003E000A4F066E970E080E090E00E94E70020E081
:1003F00030E040E85FE36A897B898C899D890E94AF
:1004000010026A8B7B8B8C8B9D8B98EE891693E008
:100410009906A104B1040CF0A8CF73016201AACF20
:100420005058BB27AA270E9428020C94D1020E9490
:10043000C30238F00E94CA0220F039F49F3F19F439
:1004400026F40C94C0020EF4E095E7FB0C94BA027B
:10045000E92F0E94E20258F3BA1762077307840774
:10046000950720F079F4A6F50C9404030EF4E095BA
:100470000B2EBA2FA02D0B01B90190010C01CA015E
:10048000A0011124FF27591B99F0593F50F4503E09
:1004900068F11A16F040A22F232F342F4427585FFB
:1004A000F3CF469537952795A795F0405395C9F713
:1004B0007EF41F16BA0B620B730B840BBAF09150CB
:1004C000A1F0FF0FBB1F661F771F881FC2F70EC06A
:1004D000BA0F621F731F841F48F48795779567953D
:1004E000B795F7959E3F08F0B0CF9395880F08F029
:1004F0009927EE0F979587950895E89409C097FB83
:100500003EF490958095709561957F4F8F4F9F4FEA
:100510009923A9F0F92F96E9BB279395F69587952E
:1005200077956795B795F111F8CFFAF4BB0F11F4F1
:1005300060FF1BC06F5F7F4F8F4F9F4F16C0882398
:1005400011F096E911C0772321F09EE8872F762FCE
:1005500005C0662371F096E8862F70E060E02AF00F
:100560009A95660F771F881FDAF7880F96958795FB
:1005700097F9089597F99F6780E870E060E0089523
:100580009FEF80EC089500240A94161617061806AB
:100590000906089500240A94121613061406050687
:1005A0000895092E0394000C11F4882352F0BB0F18
:1005B00040F4BF2B11F460FF04C06F5F7F4F8F4F7B
:1005C0009F4F089557FD9058440F551F59F05F3FB6
:1005D00071F04795880F97FB991F61F09F3F79F065
:1005E00087950895121613061406551FF2CF4695E7
:1005F000F1DF08C0161617061806991FF1CF869569
:100600007105610508940895E894BB27662777274C
:10061000CB0197F908950E947D0308F48FEF0895A8
:100620000E9423030C94D1020E94C30238F00E945E
:10063000CA0220F0952311F00C94BA020C94C00267
:1006400011240C9405030E94E20270F3959FC1F3FC
:10065000950F50E0551F629FF001729FBB27F00D70
:10066000B11D639FAA27F00DB11DAA1F649F6627C5
:10067000B00DA11D661F829F2227B00DA11D621F14
:10068000739FB00DA11D621F839FA00D611D221FCE
:10069000749F3327A00D611D231F849F600D211DB2
:1006A000822F762F6A2F11249F5750409AF0F1F035
:1006B00088234AF0EE0FFF1FBB1F661F771F881F9E
:1006C00091505040A9F79E3F510580F00C94BA021A
:1006D0000C9405035F3FE4F3983ED4F38695779539
:1006E0006795B795F795E7959F5FC1F7FE2B880F44
:1006F000911D9695879597F90895990F0008550FC4
:10070000AA0BE0E8FEEF16161706E807F907C0F097
:1007100012161306E407F50798F0621B730B840B9F
:10072000950B39F40A2661F0232B242B252B21F479
:1007300008950A2609F4A140A6958FEF811D811D19
:10074000089590913301E0912E01F0912F019923AA
:1007500011F0849101C080812FEB280F2A3110F411
:10076000805E0895803249F49F012F5F3F4F3093A0
:100770002F0120932E01EF2B31F708951F93CF9374
:10078000DF930E94A103C0E0D0E01AE090ED980F43
:100790009A30B8F49E01129FE001139FD00D1124EE
:1007A000C80FD11D87FDDA95E09780912E019091B9
:1007B0002F01019690932F0180932E010E94A10397
:1007C000E5CFCE01DF91CF911F91089510926F0078
:1007D00083E28093800081E1809381001092820007
:1007E00080E197E2909389008093880010928B00BB
:1007F00010928A00229A789408958F929F92AF92D5
:10080000BF92DF92EF92FF920F931F93CF93DF93EC
:100810005C018B01D42E80913001811105C081E0F3
:10082000809330010E94E60310920901B7FE05C0D3
:10083000E894B7F82AE0F22E02C0FF24F394E09087
:1008400081002E2D287FE22E48ECF49EC001112459
:100850008A159B05E0F4E50151E1A51657E2B506BE
:1008600010F0C0E1D7E2BE017695679580E090E098
:100870006058794687469F4F4E01A12CB12CA501A7
:1008800094010E94970B59018E2D816024C0C8E20B
:10089000FC9EC02D1124D0E0CA15DB0508F4E5014B
:1008A000BE01769567959E0140E050E08AE0F8121F
:1008B00007C080E090E0605E734481449F4F06C0B3
:1008C00080E090E060537D4E8C4E9F4F0E94970BCE
:1008D00059018E2D8260882E2AE0F21207C0CE01C7
:1008E00005966AE070E00E946F0BEB01C83E43E0A2
:1008F000D40759F09801DE010E94D80B28EE33E0AE
:1009000040E050E00E94B90B890110926F00809284
:100910008100B0928900A0928800209188003091D7
:1009200089004D2D403108F04FE080E190E0841BBC
:100930009109A90102C0569547958A95E2F750930F
:100940008B0040938A00109336010093350186B3E3
:100950008FEF86BB81E080936F00DF91CF911F9175
:100960000F91FF90EF90DF90BF90AF909F908F908E
:100970000895CF93DF93EB018F3F11F0411105C034
:1009800040E0BE0188EE93E043C0813130F050EF8B
:10099000580F503618F05FE501C050E0852F6CE02D
:1009A0000E94630B682F74EF760390011124250FCA
:1009B000311D2C30310540F4F901EE0FFF1FE05FCF
:1009C000FE4F2081318102C020E030E0873081F08D
:1009D000082E02C0220F331F0A94E2F7823028F05B
:1009E000C90105966AE070E00CC0C90190580CC0BE
:1009F000C90136E0880F991F3A95E1F7029665E044
:100A000070E00E946F0BCB01403108F04FE0BE0157
:100A10000E94FD03DF91CF910895A2E0B0E0E3E1F1
:100A2000F5E00C94E90B9090080180913201882345
:100A300021F060913101611117C077247394B0ECFB
:100A4000AB2EBDE5BB2E1AE0612E04E0802E80EDBA
:100A5000C82E87E0D82E94E0E92EF12C04EF11E0A7
:100A60002FE0422E512C15C070E040E088EE93E05C
:100A70000E94FD031092310117C18636D4F58136EC
:100A800009F4A9C07CF58C3309F460C08E3381F47D
:100A900093940E94A10320912E0130912F012F5F8A
:100AA0003F4F30932F0120932E01853631F752C0EE
:100AB000813209F08BC080920801D0920701C09268
:100AC0000601F0920501E0920401109303010093E6
:100AD0000201509201014092000110923201A4E003
:100AE0009A2ED7CF8336A1F10CF478C010E082E0C3
:100AF00077C08D36C1F194F4873691F174F18C365C
:100B000009F064C00E94BE03BC019093050180936C
:100B10000401809106019091070151C08237C9F10B
:100B20004CF48F3609F052C00E94BE03982E809379
:100B30000801AFCF843781F1863709F047C00E94A2
:100B4000BE039093010180930001A3CF9A94A1CF9B
:100B500010E020C010E084E043C010E085E040C019
:100B600010E087E03DC00E94A1038C3619F410927A
:100B7000320104C0709232011092310120912E0195
:100B800030912F012F5F3F4F30932F0120932E0183
:100B900080CF11E080E024C00E94BE03BC01C501EB
:100BA0000E946F0B669EC001679E900D112490936A
:100BB00007018093060160910401709105010E9474
:100BC0006F0B709303016093020163CF10922F01AA
:100BD00010922E0169C010E089E002C010E08BE0A5
:100BE000082F9CE0999E000D11240E94A103982FCC
:100BF000977F933261F420912E0130912F012F5F66
:100C00003F4F30932F0120932E010F5FEECF8D3297
:100C100071F420912E0130912F012F5F3F4F3093BF
:100C20002F0120932E0101500E94A103F0CF60916B
:100C30000201709103018153883050F4E090060165
:100C4000F09007010E94BE03BC01C7010E946F0B18
:100C50007B01F694E79469837A830E94A1036981FA
:100C60007A818E3269F420912E0130912F012F5F0D
:100C70003F4F30932F0120932E016E0D7F1DE9CF42
:100C800080913201882339F09B0136952795209376
:100C90003101621B710940910001112311F08FEFA6
:100CA00001C0802F0E94B9042296E0E10C94050C4B
:100CB0001F920F920FB60F9211242F933F934F93D1
:100CC0005F936F937F938F939F93AF93BF93EF93B4
:100CD000FF9380913501909136019C01215031099B
:100CE0003093360120933501892B11F510926F0056
:100CF000789480918100887F81608093810080E179
:100D000097E2909389008093880010928B00109254
:100D10008A0081E08093090180912E0190912F013A
:100D2000892B31F080913401811102C00E940D05A0
:100D3000FF91EF91BF91AF919F918F917F916F91B3
:100D40005F914F913F912F910F900FBE0F901F9089
:100D5000189510926F0090932F0180932E0181E0DF
:100D600080933301109231010E940D0508950E9475
:100D7000A9060895883058F491E001C0990F8A952A
:100D8000EAF7892FAAE2B0E0EBE2F0E021C08E3072
:100D900060F498EF980F81E001C0880F9A95EAF708
:100DA000A4E2B0E0E5E2F0E013C0853160F492EF38
:100DB000980F81E001C0880F9A95EAF7A7E2B0E0AA
:100DC000E8E2F0E005C080E0A0E0B0E0E0E0F0E0C4
:100DD0006F3F19F49081982709C0662319F090811C
:100DE000982B04C02081982F9095922390839C91FA
:100DF000982B9C93089583EF8093B00084BD82E08C
:100E00008093B10085BD1092B4001092B30018BC5D
:100E100017BC60E086E00E94BA0660E085E00E94B0
:100E2000BA0660E08BE00E94BA0660E083E00E94B0
:100E3000BA06089580918501811105C081E08093F3
:100E400085010E94FB060895CF93DF93EC010E9479
:100E50001A07D7FF05C0D195C195D10981E001C01E
:100E600080E0CF3FD10519F014F0CFEFD0E0882318
:100E700019F018BCC7BD02C0C8BD17BCDF91CF9127
:100E80000895CF93DF93EC010E941A07D7FF05C0A6
:100E9000D195C195D10981E001C080E0CF3FD10556
:100EA00019F014F0CFEFD0E0882329F01092B400AD
:100EB000C093B30004C0C093B4001092B300DF919C
:100EC000CF910895CF93DF93EB010E942407CE01C9
:100ED0000E944107DF91CF9108950E946207089513
:100EE00084B18D7C84B985B1826385B985E090E059
:100EF0006F9364E06A95F1F76F910197C9F70895D0
:100F000080918601811105C081E0809386010E9455
:100F1000700708951F93CF93DF93182F0E948007C7
:100F2000C12FD0E023B130E0209530952C233D2314
:100F3000232BC1F38AE090E00E94130823B130E034
:100F4000209530952C233D23232B61F383B180958D
:100F50008123DF91CF911F910895CF93C82F0E94D5
:100F6000800783B18C23E9F38AE090E00E941308A4
:100F700083B18C23B1F383B18C23CF910895CF93A8
:100F80000E948A07C82F0E94AD078C2FCF91089529
:100F90000E94BF0708952F928F939F932FB6809141
:100FA0003E0190913F01019680933E0190933F0155
:100FB00090E080914001891F809340019091380119
:100FC0009C5F909338018091370180519742C0F027
:100FD00090933801809337018091390190913A01C3
:100FE00001968093390190933A0190E080913B0102
:100FF000891F80933B0180913C01891F80933C01B4
:101000002FBE9F918F912F90189528EE33E0019776
:1010100048F0F9016F9364E06A95F1F76F913197A9
:10102000C9F7F5CF08950E9405080895E0E7F0E0BC
:1010300080818E7F8083A0EBB0E08C9183608C9365
:10104000A1EBB0E08C91807F8C938C9182608C932B
:10105000B89A808181608083789408958091870117
:10106000811105C081E0809387010E9416080895D0
:101070000E942E08E0E7F0E080818E7F80836091FF
:10108000390170913A0180913B0190913C0120819E
:101090002160208308950E94380808950E942E0838
:1010A000E0E7F0E080818E7F80831092390110921A
:1010B0003A0110923B0110923C01109238011092BB
:1010C00037018081816080830895462FBC0181E4CF
:1010D00091E00E94E80A08950F93CF93DF9300D028
:1010E00000D01F92CDB7DEB79C0185E0E8E2F1E0C9
:1010F000DE01119601900D928A95E1F7662311F0B9
:101100000FEF01C003E145E0BE016F5F7F4F81E457
:1011100091E00E943E0981E491E00E9415090E943D
:101120004E080F900F900F900F900F90DF91CF917E
:101130000F91089560E00E946C08089581E491E0A9
:101140000E94450B08956F9364E06A95F1F76F91E3
:101150000197C9F70895FC0111821082138212824F
:10116000158214821682683068F489E290E09183D7
:1011700080838BE290E0938382838AE290E0958380
:1011800084831FC06E3070F483E290E0918380838B
:1011900085E290E09383828384E290E09583848368
:1011A00068500FC0653198F486E290E091838083A7
:1011B00088E290E09383828387E290E09583848342
:1011C0006E5081E001C0880F6A95EAF78683089522
:1011D000A7E0B0E0EEEEF8E00C94F50B8C01FC011A
:1011E0001182108213821282158214821782168253
:1011F000613118F080E1808702C0FC016087F8014E
:10120000208B642FCE0101960E94AB088F81F801DC
:1012100081878B819C81938782878D819E81958731
:1012200084872796E4E00C94110CFC01A485B58515
:10123000109779F08C919185892B8C93A285B38539
:101240009C918185809589238C9388EC90E00E9405
:10125000A3080895FC01A485B585109771F08C91C1
:101260009185892B8C93A285B3858C919185892B4F
:101270008C9388EC90E00E94A3080895A7E0B0E06A
:10128000E4E4F9E00C94EA0B7C014B01642F390192
:10129000402F20E00E94E80887010F5B1F4FF801F4
:1012A00010826701F2E4CF0ED11CF60110825701C3
:1012B000F3E4AF0EB11CF5011082F7017786668664
:1012C000512CF7018085581650F5652C712CF401CE
:1012D000E60DF71D6081CE0101960E94AB082F81BB
:1012E000F701E60DF71D218B89819A81F301EE0F3D
:1012F000FF1FEE0DFF1D92A381A38332910511F410
:10130000F80108C08632910511F4F60103C08997EF
:1013100021F4F5018081822B80835394D2CF2796CC
:10132000EFE00C94060CA0E0B0E0E9E9F9E00C94E1
:10133000EC0BEC015B016C0181E4C80ED11CF601E1
:1013400080807E01F2E4EF0EF11CF70170808E01C7
:101350000D5B1F4FF801908080E09885891748F455
:10136000F501E80FF11DE80FF11D118210828F5F6A
:10137000F4CF84B1F6019081892B84B987B1F7014C
:101380009081892B87B98AB1F8019081892B8AB91C
:1013900085B1F6019081892B85B988B1F7019081DB
:1013A000892B88B98BB1F8019081892B8BB98AE0A0
:1013B00090E00E94A30894B1F60180818095892372
:1013C00084B997B1F70180818095892387B99AB153
:1013D000F8018081809589238AB995B1F6018081D1
:1013E0008095892385B998B1F701808180958923FB
:1013F00088B99BB1F8018081809589238BB9E090F1
:10140000B000D090B1008091B00083608093B000B4
:1014100082E08093B1004091B20080E090E02E85A0
:101420003F858217930720F5C090B2002C2D241B16
:10143000820F911D03B1081132C0F6B0F7102FC012
:1014400029B129112CC010C0212F30E0A901440F6F
:10145000551FF501E40FF51F60817181672B21F1A4
:101460001F5F2885121780F37F2C802E4C2DD7CF3D
:10147000E092B000D092B10020E08885281730F5C6
:10148000F501E20FF11DE20FF11D80819181892BA1
:1014900021F48E859F85918380832F5FEECF03B1EA
:1014A000F6B099B010E0DDCFDE01A40FB51F919624
:1014B0000D90BC91A02D4C91DE01A20FB31F51964F
:1014C0002C91422369F691838083CACFCDB7DEB7D2
:1014D000EDE00C94080CEF92FF920F931F93CF93C3
:1014E000DF93FC019B01F0907C0000917A0047B1F2
:1014F00018B180917A0086FDFCCF80E09085891735
:1015000048F4D901A80FB11DA80FB11D1D921C925E
:101510008F5FF4CF97B182A18095892387B998B165
:1015200082A18095892388B987E880937A00E12C8D
:1015300081A1E81610F0E12C29C050E080855817F1
:1015400018F5A52FB0E0EF01CA0FDB1F8989806471
:1015500080937C0080917A00806480937A008091EF
:101560007A0086FDFCCF6091780070917900AA0F17
:10157000BB1FA20FB31F8D919C911197860F971FD0
:101580008D939C935F5FDACFE394D2CF8085E8168A
:10159000A0F4E901CE0DD11DCE0DD11D61A170E0E9
:1015A000CB0195958795A881B9818A0F9B1F0E94D1
:1015B0006F0B79836883E394E9CFF0927C0000930A
:1015C0007A0018B947B9CDB7DEB7E6E00C940F0C36
:1015D000A0E2B0E0EEEEFAE00C94F20B8C017B019D
:1015E000D42E8FEF840F823018F4C8010E942A098C
:1015F000D80150968C91B701811110C0C8010E948A
:101600009309C8010E941509B2E0DB123AC0BE017D
:101610006F5F7F4FC8010E9493090FC0C8010E94ED
:101620006B0AC8010E941509E2E0DE122AC0BE0161
:101630006F5F7F4FC8010E946B0A40E0F801808510
:101640004817F8F4842F90E0880F991FF701E80FEE
:10165000F91F21E030E02C0F3D1F820F931FD801AE
:101660001E962D913C911F97DC018D919C91281B1A
:10167000390B80819181820F931F918380834F5F0B
:10168000DDCFA096E7E00C940E0CCF93DF93EC0136
:101690008A819B81009711F00E94BC0C8E819F81F2
:1016A000009711F00E94BC0C88819981009711F07D
:1016B0000E94BC0C8C819D81009711F00E94BC0C93
:1016C000DF91CF910895991B79E004C0991F961777
:1016D00008F0961B881F7A95C9F780950895AA1B74
:1016E000BB1B51E107C0AA1FBB1FA617B70710F00D
:1016F000A61BB70B881F991F5A95A9F7809590953F
:10170000BC01CD01089597FB072E16F4009407D075
:1017100077FD09D00E946F0B07FC05D03EF4909531
:1017200081959F4F0895709561957F4F0895A1E22F
:101730001A2EAA1BBB1BFD010DC0AA1FBB1FEE1F4B
:10174000FF1FA217B307E407F50720F0A21BB30B96
:10175000E40BF50B661F771F881F991F1A9469F712
:1017600060957095809590959B01AC01BD01CF016E
:101770000895052E97FB1EF400940E94D00B57FD90
:1017800007D00E94970B07FC03D04EF40C94D00BAB
:1017900050954095309521953F4F4F4F5F4F08959D
:1017A00090958095709561957F4F8F4F9F4F0895CD
:1017B000A29FB001B39FC001A39F700D811D112492
:1017C000911DB29F700D811D1124911D08952F92BE
:1017D0003F924F925F926F927F928F929F92AF92C1
:1017E000BF92CF92DF92EF92FF920F931F93CF930E
:1017F000DF93CDB7DEB7CA1BDB0B0FB6F894DEBFA5
:101800000FBECDBF09942A88398848885F846E84CA
:101810007D848C849B84AA84B984C884DF80EE8014
:10182000FD800C811B81AA81B981CE0FD11D0FB61D
:10183000F894DEBF0FBECDBFED010895EE0FFF1F80
:101840000590F491E02D09940F931F93CF93DF93AC
:101850008230910510F482E090E0E0918A01F091ED
:101860008B0120E030E0A0E0B0E0309719F140813A
:1018700051810281138148175907C8F084179507D1
:1018800069F4109731F012960C93129713961C93EB
:1018900027C000938A0110938B0122C021153105C6
:1018A00019F04217530718F49A01BD01EF01DF0147
:1018B000F801DBCF21153105F9F0281B390B243055
:1018C000310580F48A819B816115710521F0FB014E
:1018D0009383828304C090938B0180938A01FE01DD
:1018E000329644C0FE01E20FF31F81939193225080
:1018F0003109398328833AC02091880130918901C8
:10190000232B41F420910C0130910D01309389017A
:101910002093880120910A0130910B012115310596
:1019200041F42DB73EB740910E0150910F01241B99
:10193000350BE0918801F0918901E217F307A0F4DB
:101940002E1B3F0B2817390778F0AC014E5F5F4F15
:101950002417350748F04E0F5F1F509389014093BD
:1019600088018193919302C0E0E0F0E0CF01DF9124
:10197000CF911F910F910895CF93DF93009709F4B2
:1019800081C0FC01329713821282A0918A01B0912A
:101990008B01109781F420813181820F931F209158
:1019A0008801309189012817390751F5F093890191
:1019B000E093880167C0ED0120E030E0CE17DF073B
:1019C00040F44A815B819E0141155105F1F0EA0125
:1019D000F5CFD383C28340815181840F951FC817EF
:1019E000D90759F488819981840F951F02969183B4
:1019F00080838A819B81938382832115310529F419
:101A0000F0938B01E0938A013DC0E901FB83EA83F7
:101A100049915991C40FD51FEC17FD0761F48081DE
:101A20009181840F951F0296E901998388838281B1
:101A300093819B838A83E0E0F0E012968D919C91E4
:101A40001397009719F0FD01DC01F7CF8D919C9160
:101A500011979D012E5F3F4F820F931F20918801A8
:101A6000309189012817390769F4309729F41092C9
:101A70008B0110928A0102C013821282B0938901F5
:101A8000A0938801DF91CF91089510E0C8E4D0E0E1
:101A900004C0FE010E941E0C2196C934D107C9F76B
:041AA000F894FFCFE8
:101AA4000F00F4010400D007040100008C012000A1
:101AB4009C01B501CF01EA0107022602470269022F
:0E1AC4008E02B502DE020A030E0F1011120090
:00000001FF
