:100000000C943A000C9457000C9457000C94570031
:100010000C9457000C9457000C9457000C94570004
:100020000C9457000C9477050C9457000C945700CF
:100030000C9457000C9494030C9457000C945700A4
:100040000C9457000C9457000C9457000C945700D4
:100050000C9457000C9457000C9457000C945700C4
:100060000C9457000C9457003E6733323E3E633386
:100070003200340611241FBECFEFD8E0DEBFCDBF63
:1000800011E0A0E0B1E0E0EDF5E102C005900D92D5
:10009000A033B107D9F721E0A0E3B1E001C01D9280
:1000A000A539B207E1F70E94B4000C94DB0A0C9466
:1000B0000000CF92DF92EF92FF920F931F93CF93A6
:1000C000DF93CDB7DEB72A970FB6F894DEBF0FBE29
:1000D000CDBF6C017B0161E00E94FB05F6018081D0
:1000E00091819195819591099A83898382819381E8
:1000F0009195819591099C838B831E821D828681B7
:10010000978198878F83808591859A87898780E0FA
:1001100090E00EC0FC01EE0FFF1F21E030E02C0F3D
:100120003D1FE20FF31F20813181020F131F019643
:10013000853091057CF3C7016AE070E00E941909DF
:10014000C8010E941909CB0101972A960FB6F894AD
:10015000DEBF0FBECDBFDF91CF911F910F91FF90FA
:10016000EF90DF90CF900895CF93DF93CDB7DEB7B8
:100170002A970FB6F894DEBF0FBECDBF88E690E099
:100180000E94F30380ED97E00E9430060E94FC0479
:1001900060E080E00E94740560ED77E0CE0101969A
:1001A0000E945900BC01990F880B990B0E945105C0
:1001B00088EE93E00E94BF05E9CF90913501E09170
:1001C0003001F0913101992311F0849101C08081B7
:1001D0002FEB280F2A3110F4805E0895803249F405
:1001E0009F012F5F3F4F3093310120933001EF2B60
:1001F00031F708951F93CF93DF930E94DD00C0E095
:10020000D0E01AE090ED980F9A30B8F49E01129F5A
:10021000E001139FD00D1124C80FD11D87FDDA9581
:10022000E0978091300190913101019690933101D6
:10023000809330010E94DD00E5CFCE01DF91CF91A8
:100240001F91089510926F0083E28093800081E1F6
:10025000809381001092820080E197E29093890060
:100260008093880010928B0010928A00229A7894D2
:1002700008958F929F92AF92BF92DF92EF92FF927A
:100280000F931F93CF93DF935C018B01D42E80914A
:100290003201811105C081E0809332010E94220168
:1002A00010920901B7FE05C0E894B7F82AE0F22ED3
:1002B00002C0FF24F394E09081002E2D287FE22ECF
:1002C00048ECF49EC00111248A159B05E0F4E50179
:1002D00051E1A51657E2B50610F0C0E1D7E2BE0124
:1002E0007695679580E090E06058794687469F4F05
:1002F0004E01A12CB12CA50194010E942D09590198
:100300008E2D816024C0C8E2FC9EC02D1124D0E057
:10031000CA15DB0508F4E501BE01769567959E01D7
:1003200040E050E08AE0F81207C080E090E0605EB4
:10033000734481449F4F06C080E090E060537D4E3F
:100340008C4E9F4F0E942D0959018E2D8260882E60
:100350002AE0F21207C0CE0105966AE070E00E9422
:100360000509EB01C83E43E0D40759F09801DE01CE
:100370000E946E0928EE33E040E050E00E944F09F1
:10038000890110926F0080928100B0928900A09242
:10039000880020918800309189004D2D403108F06F
:1003A0004FE080E190E0841B9109A90102C05695BD
:1003B00047958A95E2F750938B0040938A001093FB
:1003C00038010093370186B38FEF86BB81E08093BD
:1003D0006F00DF91CF911F910F91FF90EF90DF9011
:1003E000BF90AF909F908F900895CF93DF93EB01D4
:1003F0008F3F11F0411105C040E0BE0188EE93E04F
:1004000043C0813130F050EF580F503618F05FE59F
:1004100001C050E0852F6CE00E94F908682F74EF4E
:10042000760390011124250F311D2C30310540F445
:10043000F901EE0FFF1FEE5EFE4F2081318102C0F9
:1004400020E030E0873081F0082E02C0220F331FF9
:100450000A94E2F7823028F0C90105966AE070E05C
:100460000CC0C90190580CC0C90136E0880F991F13
:100470003A95E1F7029665E070E00E940509CB012C
:10048000403108F04FE0BE010E943901DF91CF9169
:100490000895A2E0B0E0EFE4F2E00C947F099090C0
:1004A000080180913401882321F0609133016111AA
:1004B00017C077247394B0ECAB2EBDE5BB2E1AE0C9
:1004C000612E04E0802E80EDC82E87E0D82E94E0C7
:1004D000E92EF12C04EF11E02FE0422E512C15C033
:1004E00070E040E088EE93E00E9439011092330101
:1004F00017C18636D4F5813609F4A9C07CF58C3352
:1005000009F460C08E3381F493940E94DD00209141
:100510003001309131012F5F3F4F309331012093F3
:100520003001853631F752C0813209F08BC080929C
:100530000801D0920701C0920601F0920501E092F5
:1005400004011093030100930201509201014092B3
:10055000000110923401A4E09A2ED7CF8336A1F186
:100560000CF478C010E082E077C08D36C1F194F4CD
:10057000873691F174F18C3609F064C00E94FA005C
:10058000BC01909305018093040180910601909134
:10059000070151C08237C9F14CF48F3609F052C0BF
:1005A0000E94FA00982E80930801AFCF843781F122
:1005B000863709F047C00E94FA00909301018093AA
:1005C0000001A3CF9A94A1CF10E020C010E084E0F6
:1005D00043C010E085E040C010E087E03DC00E94CD
:1005E000DD008C3619F41092340104C0709234018D
:1005F0001092330120913001309131012F5F3F4F34
:10060000309331012093300180CF11E080E024C08D
:100610000E94FA00BC01C5010E940509669EC00146
:10062000679E900D112490930701809306016091BD
:100630000401709105010E94050970930301609304
:10064000020163CF109231011092300169C010E0B5
:1006500089E002C010E08BE0082F9CE0999E000D1D
:1006600011240E94DD00982F977F933261F420912E
:100670003001309131012F5F3F4F30933101209392
:1006800030010F5FEECF8D3271F420913001309147
:1006900031012F5F3F4F30933101209330010150E2
:1006A0000E94DD00F0CF609102017091030181533F
:1006B000883050F4E0900601F09007010E94FA00A3
:1006C000BC01C7010E9405097B01F694E794698388
:1006D0007A830E94DD0069817A818E3269F42091EB
:1006E0003001309131012F5F3F4F30933101209322
:1006F00030016E0D7F1DE9CF80913401882339F0E0
:100700009B013695279520933301621B7109409117
:100710000001112311F08FEF01C0802F0E94F5011D
:100720002296E0E10C949B091F920F920FB60F9254
:1007300011242F933F934F935F936F937F938F93E6
:100740009F93AF93BF93EF93FF9380913701909165
:1007500038019C0121503109309338012093370131
:10076000892B11F510926F00789480918100887F19
:1007700081608093810080E197E29093890080936B
:10078000880010928B0010928A0081E0809309010A
:100790008091300190913101892B31F080913601A7
:1007A000811102C00E944902FF91EF91BF91AF9168
:1007B0009F918F917F916F915F914F913F912F9179
:1007C0000F900FBE0F901F90189510926F0090938E
:1007D00031018093300181E0809335011092330123
:1007E0000E94490208950E94E503089581E090E087
:1007F0006F9364E06A95F1F76F910197C9F70895D7
:100800000F931F93CF93DF931AB157985A98289A52
:10081000C0E0D0E00E94F6035C9A0E94F60309B1A2
:100820005C980E94F6035C9A0E94F6035C982496FA
:1008300007FF10C0AE0160E070E080913901909137
:100840003A01A0913B01B0913C01481759076A0752
:100850007B0700F31AB9DF91CF911F910F91089593
:1008600095B1282F217030E0220F331F482F46709A
:1008700068E0469FA0011124242B9D7C292B25B9DB
:100880009BB188708295807F9F77892B8BB95C9A0A
:100890000E94F6035C980E94F6030895A0E0B0E081
:1008A000E4E5F4E00C948809C82FD62EE42E80915C
:1008B0008F01811105C081E080938F010E94940413
:1008C0000E94000414B1D5B1FAB00BB12898DD2014
:1008D00011F05A9A01C05A9894B1926394B9579AF8
:1008E00081E0E81629F08C2F82958F700E943004E9
:1008F0008C2F8F700E943004FAB80BB914B9D5B997
:10090000CDB7DEB7E7E00C94A40942E060E00E94B6
:100910004E04089542E061E00E944E04089541E0D3
:1009200060E00E944E04089580E197E2A0E0B0E00C
:100930008093390190933A01A0933B01B0933C011D
:10094000529A209A549A8EE190E00E94BF0583E06B
:100950000E948F0486E090E00E94BF0583E00E9421
:100960008F0482E090E00E94BF0583E00E948F0424
:1009700082E090E00E94BF0582E00E948F0482E046
:1009800090E00E94BF0588E20E94850488E00E94F2
:10099000850481E00E94850486E00E9485048CE045
:1009A0000E948504089581E00E94850480913F01A2
:1009B00090914001892BF9F060E0A0E2262F30E011
:1009C00070910A0180910B0190E00197789FA0013E
:1009D000799F500D1124241735074CF4E0913F0105
:1009E000F0914001E20FF31FA0836F5FE7CF1092F9
:1009F0003D0110923E0108950E94D3040895AAE09B
:100A0000B0E0E5E0F5E00C9487091AE05AE0C52E65
:100A1000D12CE12CF12C062FA70196010E942D0963
:100A2000CA01B9011150E1E0F0E0EC0FFD1FE10F48
:100A3000F11D005D2AE0629F0019112400836115F9
:100A400071058105910539F71A3058F4E1E0F0E0BD
:100A5000EC0FFD1FE10FF11D80810E948A041F5FD2
:100A6000F3CF2A96E8E00C94A309CF92DF92EF929D
:100A7000FF926B017C0197FF0BC0F094E094D0943F
:100A8000C094C11CD11CE11CF11C8DE20E948A049F
:100A9000C701B6010E94FF04FF90EF90DF90CF9056
:100AA00008950E9435050895A5E0B0E0EAE5F5E077
:100AB0000C948C09182F80E8898380EC8A8384E960
:100AC0008B8384ED8C83FE01E60FF11D8181810F04
:100AD0006D830E94850410933D016D8160933E01FA
:100AE0002596E3E00C94A8090E94540508952F92DE
:100AF0008F939F932FB68091480190914901019661
:100B0000809348019093490190E080914A01891FA8
:100B100080934A01909142019C5F909342018091A1
:100B2000410180519742C0F090934201809341016E
:100B300080914301909144010196809343019093E9
:100B4000440190E080914501891F80934501809187
:100B50004601891F809346012FBE9F918F912F9050
:100B6000189528EE33E0019748F0F9016F9364E09F
:100B70006A95F1F76F913197C9F7F5CF08950E9403
:100B8000B1050895E0E7F0E080818E7F8083A0EBDF
:100B9000B0E08C9183608C93A1EBB0E08C91807F6E
:100BA0008C938C9182608C93B89A808181608083D1
:100BB0007894089580919001811105C081E080931F
:100BC00090010E94C20508950E94DA05E0E7F0E076
:100BD00080818E7F80831092430110924401109295
:100BE000450110924601109242011092410180810C
:100BF000816080830895462FBC018BE491E00E94C0
:100C00007E0808950F93CF93DF9300D000D01F92FA
:100C1000CDB7DEB79C0185E0EAE2F1E0DE01119696
:100C200001900D928A95E1F7662311F00FEF01C054
:100C300003E145E0BE016F5F7F4F8BE491E00E94CE
:100C4000D4068BE491E00E94AB060E94E4050F906D
:100C50000F900F900F900F90DF91CF910F9108950B
:100C600060E00E94020608958BE491E00E94DB0898
:100C700008956F9364E06A95F1F76F910197C9F752
:100C80000895FC011182108213821282158214824F
:100C90001682683068F489E290E0918380838BE269
:100CA00090E0938382838AE290E0958384831FC0DF
:100CB0006E3070F483E290E09183808385E290E06F
:100CC0009383828384E290E09583848368500FC08D
:100CD000653198F486E290E09183808388E290E029
:100CE0009383828387E290E0958384836E5081E0D2
:100CF00001C0880F6A95EAF786830895A7E0B0E0FF
:100D0000E4E8F6E00C948B098C01FC01118210825E
:100D1000138212821582148217821682613118F0B2
:100D200080E1808702C0FC016087F801208B642F7E
:100D3000CE0101960E9441068F81F80181878B8147
:100D40009C81938782878D819E8195878487279652
:100D5000E4E00C94A709FC01A485B585109779F00F
:100D60008C919185892B8C93A285B3859C918185EB
:100D7000809589238C9388EC90E00E943906089531
:100D8000FC01A485B585109771F08C919185892B14
:100D90008C93A285B3858C919185892B8C9388EC5B
:100DA00090E00E9439060895A7E0B0E0EAEDF6E091
:100DB0000C9480097C014B01642F3901402F20E005
:100DC0000E947E0687010F5B1F4FF80110826701AA
:100DD000F2E4CF0ED11CF60110825701F3E4AF0EFE
:100DE000B11CF5011082F70177866686512CF70158
:100DF0008085581650F5652C712CF401E60DF71D11
:100E00006081CE0101960E9441062F81F701E60D17
:100E1000F71D218B89819A81F301EE0FFF1FEE0DE3
:100E2000FF1D92A381A38332910511F4F80108C03C
:100E30008632910511F4F60103C0899721F4F5017A
:100E40008081822B80835394D2CF2796EFE00C943D
:100E50009C09A0E0B0E0EFE2F7E00C948209EC011D
:100E60005B016C0181E4C80ED11CF60180807E011B
:100E7000F2E4EF0EF11CF70170808E010D5B1F4F45
:100E8000F801908080E09885891748F4F501E80F13
:100E9000F11DE80FF11D118210828F5FF4CF84B134
:100EA000F6019081892B84B987B1F7019081892B54
:100EB00087B98AB1F8019081892B8AB985B1F60189
:100EC0009081892B85B988B1F7019081892B88B9E8
:100ED0008BB1F8019081892B8BB98AE090E00E9458
:100EE000390694B1F60180818095892384B997B140
:100EF000F70180818095892387B99AB1F8018081B3
:100F0000809589238AB995B1F601808180958923DE
:100F100085B998B1F70180818095892388B99BB103
:100F2000F8018081809589238BB9E090B000D09042
:100F3000B1008091B00083608093B00082E0809324
:100F4000B1004091B20080E090E02E853F8582178D
:100F5000930720F5C090B2002C2D241B820F911D09
:100F600003B1081132C0F6B0F7102FC029B1291112
:100F70002CC010C0212F30E0A901440F551FF501EE
:100F8000E40FF51F60817181672B21F11F5F2885B8
:100F9000121780F37F2C802E4C2DD7CFE092B0001B
:100FA000D092B10020E08885281730F5F501E20FD6
:100FB000F11DE20FF11D80819181892B21F48E8535
:100FC0009F85918380832F5FEECF03B1F6B099B0F8
:100FD00010E0DDCFDE01A40FB51F91960D90BC91FE
:100FE000A02D4C91DE01A20FB31F51962C914223EC
:100FF00069F691838083CACFCDB7DEB7EDE00C945C
:101000009E09EF92FF920F931F93CF93DF93FC0102
:101010009B01F0907C0000917A0047B118B180915B
:101020007A0086FDFCCF80E09085891748F4D901CD
:10103000A80FB11DA80FB11D1D921C928F5FF4CF98
:1010400097B182A18095892387B998B182A18095B3
:10105000892388B987E880937A00E12C81A1E8167A
:1010600010F0E12C29C050E08085581718F5A52F05
:10107000B0E0EF01CA0FDB1F8989806480937C0098
:1010800080917A00806480937A0080917A0086FD56
:10109000FCCF6091780070917900AA0FBB1FA20F5E
:1010A000B31F8D919C911197860F971F8D939C93E1
:1010B0005F5FDACFE394D2CF8085E816A0F4E90130
:1010C000CE0DD11DCE0DD11D61A170E0CB01959546
:1010D0008795A881B9818A0F9B1F0E940509798392
:1010E0006883E394E9CFF0927C0000937A0018B90A
:1010F00047B9CDB7DEB7E6E00C94A509A0E2B0E0B1
:10110000E4E8F8E00C9488098C017B01D42E8FEF81
:10111000840F823018F4C8010E94C006D80150968E
:101120008C91B701811110C0C8010E942907C80124
:101130000E94AB06B2E0DB123AC0BE016F5F7F4F88
:10114000C8010E9429070FC0C8010E940108C801F8
:101150000E94AB06E2E0DE122AC0BE016F5F7F4F45
:10116000C8010E94010840E0F80180854817F8F4A2
:10117000842F90E0880F991FF701E80FF91F21E0F5
:1011800030E02C0F3D1F820F931FD8011E962D912A
:101190003C911F97DC018D919C91281B390B80811C
:1011A0009181820F931F918380834F5FDDCFA09643
:1011B000E7E00C94A409CF93DF93EC018A819B8133
:1011C000009711F00E94520A8E819F81009711F0C2
:1011D0000E94520A88819981009711F00E94520A58
:1011E0008C819D81009711F00E94520ADF91CF916E
:1011F0000895991B79E004C0991F961708F0961B73
:10120000881F7A95C9F780950895AA1BBB1B51E1E9
:1012100007C0AA1FBB1FA617B70710F0A61BB70B66
:10122000881F991F5A95A9F780959095BC01CD010B
:10123000089597FB072E16F4009407D077FD09D088
:101240000E94050907FC05D03EF4909581959F4FBB
:101250000895709561957F4F0895A1E21A2EAA1BFB
:10126000BB1BFD010DC0AA1FBB1FEE1FFF1FA21756
:10127000B307E407F50720F0A21BB30BE40BF50B53
:10128000661F771F881F991F1A9469F760957095DC
:10129000809590959B01AC01BD01CF010895052E6D
:1012A00097FB1EF400940E94660957FD07D00E9428
:1012B0002D0907FC03D04EF40C9466095095409517
:1012C000309521953F4F4F4F5F4F089590958095F2
:1012D000709561957F4F8F4F9F4F0895A29FB001EA
:1012E000B39FC001A39F700D811D1124911DB29F5A
:1012F000700D811D1124911D08952F923F924F92E0
:101300005F926F927F928F929F92AF92BF92CF9295
:10131000DF92EF92FF920F931F93CF93DF93CDB79E
:10132000DEB7CA1BDB0B0FB6F894DEBF0FBECDBF16
:1013300009942A88398848885F846E847D848C84E7
:101340009B84AA84B984C884DF80EE80FD800C81F0
:101350001B81AA81B981CE0FD11D0FB6F894DEBFD3
:101360000FBECDBFED010895EE0FFF1F0590F49164
:10137000E02D09940F931F93CF93DF938230910553
:1013800010F482E090E0E0919301F091940120E06C
:1013900030E0A0E0B0E0309719F140815181028146
:1013A000138148175907C8F08417950769F41097F7
:1013B00031F012960C93129713961C9327C000934A
:1013C00093011093940122C02115310519F04217A1
:1013D000530718F49A01BD01EF01DF01F801DBCFDB
:1013E00021153105F9F0281B390B2430310580F423
:1013F0008A819B816115710521F0FB0193838283B2
:1014000004C09093940180939301FE01329644C0EE
:10141000FE01E20FF31F819391932250310939832A
:1014200028833AC02091910130919201232B41F4FD
:1014300020910E0130910F01309392012093910180
:1014400020910C0130910D012115310541F42DB78A
:101450003EB74091100150911101241B350BE091D2
:101460009101F0919201E217F307A0F42E1B3F0BBC
:101470002817390778F0AC014E5F5F4F2417350706
:1014800048F04E0F5F1F509392014093910181935A
:10149000919302C0E0E0F0E0CF01DF91CF911F9186
:1014A0000F910895CF93DF93009709F481C0FC0159
:1014B000329713821282A0919301B09194011097F8
:1014C00081F420813181820F931F2091910130910D
:1014D00092012817390751F5F0939201E093910199
:1014E00067C0ED0120E030E0CE17DF0740F44A810D
:1014F0005B819E0141155105F1F0EA01F5CFD383DF
:10150000C28340815181840F951FC817D90759F4B0
:1015100088819981840F951F0296918380838A81A7
:101520009B81938382832115310529F4F0939401E3
:10153000E09393013DC0E901FB83EA83499159910E
:10154000C40FD51FEC17FD0761F480819181840FD2
:10155000951F0296E90199838883828193819B83F9
:101560008A83E0E0F0E012968D919C9113970097AA
:1015700019F0FD01DC01F7CF8D919C9111979D0130
:101580002E5F3F4F820F931F209191013091920166
:101590002817390769F4309729F4109294011092B2
:1015A000930102C013821282B0939201A093910121
:1015B000DF91CF91089510E0C9E3D0E004C0FE01AF
:1015C0000E94B4092196CA33D107C9F7F894FFCF16
:1015D0000F00F4010400D007040108020000950187
:1015E00020009C01B501CF01EA0107022602470253
:1015F00069028E02B502DE020A030E0F10111200FC
:00000001FF
