S0170000655661646572732D73756D6F626F742E737265630D
S11300000C943A000C9457000C9457000C9457002D
S11300100C9457000C9457000C9457000C94570000
S11300200C9457000C94F8080C9457000C94570047
S11300300C9457000C945F060C9457000C945700D2
S11300400C9457000C9457000C9457000C945700D0
S11300500C9457000C9457000C9457000C945700C0
S11300600C9457000C9457003E6733323E3E633382
S11300703200CB0911241FBECFEFD8E0DEBFCDBFC5
S113008011E0A0E0B1E0EEEFFCE102C005900D92BA
S1130090A033B107D9F721E0A0E3B1E001C01D927C
S11300A0A639B207E1F70E9415010C94720E0C9464
S11300B00000CF92DF92EF92FF920F931F93CF93A2
S11300C0DF93CDB7DEB72A970FB6F894DEBF0FBE25
S11300D0CDBF6C017B0161E00E949209F601808131
S11300E091819195819591099A83898382819381E4
S11300F09195819591099C838B831E821D828681B3
S1130100978198878F83808591859A87898780E0F6
S113011090E00EC0FC01EE0FFF1F21E030E02C0F39
S11301203D1FE20FF31F20813181020F131F01963F
S1130130853091057CF3C7016AE070E00E94B00C41
S1130140C8010E94B00CCB012A960FB6F894DEBF0A
S11301500FBECDBFDF91CF911F910F91FF90EF9014
S1130160DF90CF9008950F931F93CF93DF93EC010B
S11301708B0161E00E94920920E030E080E090E091
S113018011C0F901EE0FFF1FEC0FFD1F608171819B
S1130190A801485C51096417750710F481E090E0E8
S11301A02F5F3F4F2530310564F3DF91CF911F91CD
S11301B00F910895CF93DF93EC01CB010E94F508D2
S11301C0CE010E944009DF91CF910895CF93DF9330
S11301D0EC0188279927861B970BBC010E94F50820
S11301E0CE010E944009DF91CF910895CF93DF9310
S11301F0EC01CB019195819591090E94F508CE01FE
S11302000E944009DF91CF910895CF93DF93EC01D1
S1130210CB0166277727681B790B0E94F508CE016E
S11302200E944009DF91CF910895CF93DF93CDB71A
S1130230DEB760970FB6F894DEBF0FBECDBF88E679
S113024090E00E94BE0680ED97E00E94C7090E94DC
S113025078096B017C01188A1F8600E010E0212CCC
S1130260312C812C912C54011B861C861D861E86E4
S113027044C060ED77E0CE0101960E9459002C0144
S11302800E94C70760E080E00E943F088DE0849DE3
S11302903001859D700C1124B301072C000C880BD0
S11302A0990B0E941C088FEF6816710421F01CF052
S11302B066246A94712C772034F4B3018AE090E0C8
S11302C00E9405011AC0161417044CF466277727F8
S11302D0661977098AE090E00E94F6000EC067284C
S11302E061F466E970E08AE090E00E94E60005C0EF
S11302F073016201812C912C540160ED77E0CE01F1
S113030001960E94B300019709F4B3CF0E947809C3
S11303102B013C01DC01CB018C199D09AE09BF09FD
S11303206C017D01BC01CD010E94860220E030E019
S113033040E85DE30E9417039B01AC016B857C855B
S11303408D859E850E9418026B877C878D879E878A
S11303508C0C9D1CAE1CBF1C20E030E040E85FE329
S11303600E94120388230CF457C091E0291631042B
S113037059F5C8010430110538F46FEF70E080E0DE
S113038090E00E94F6001DC09801245031092E32DD
S1130390310538F462E870E08FEF90E00E94F508D0
S11303A010C0C2978639910538F462E370E080E0AA
S11303B090E00E94050105C0083C110514F0212CB1
S11303C0312C0F5F1F4F1AC0AF85B889A436B10511
S11303D074F464E670E080E090E00E94DA008F85B7
S11303E098890196988B8F8700E010E007C0188ADF
S11303F01F8600E010E022242394312C20E030E01A
S113040040E85FE36B857C858D859E850E9417029D
S11304106B877C878D879E8798EE891693E0990673
S1130420A104B1040CF064CF7301620166CF50588B
S1130430BB27AA270E942F020C94D8020E94CA024A
S113044038F00E94D10220F039F49F3F19F426F4C9
S11304500C94C7020EF4E095E7FB0C94C102E92F5B
S11304600E94E90258F3BA176207730784079507D5
S113047020F079F4A6F50C940B030EF4E0950B2E02
S1130480BA2FA02D0B01B90190010C01CA01A001E2
S11304901124FF27591B99F0593F50F4503E68F13D
S11304A01A16F040A22F232F342F4427585FF3CF7E
S11304B0469537952795A795F0405395C9F77EF44F
S11304C01F16BA0B620B730B840BBAF09150A1F098
S11304D0FF0FBB1F661F771F881FC2F70EC0BA0F1E
S11304E0621F731F841F48F4879577956795B795A6
S11304F0F7959E3F08F0B0CF9395880F08F09927A1
S1130500EE0F979587950895E89409C097FB3EF4FC
S113051090958095709561957F4F8F4F9F4F99234C
S1130520A9F0F92F96E9BB279395F69587957795CA
S11305306795B795F111F8CFFAF4BB0F11F460FF8A
S11305401BC06F5F7F4F8F4F9F4F16C0882311F0E2
S113055096E911C0772321F09EE8872F762F05C0F6
S1130560662371F096E8862F70E060E02AF09A9591
S1130570660F771F881FDAF7880F9695879597F986
S1130580089597F99F6780E870E060E008959FEF11
S113059080EC089500240A94161617061806090616
S11305A0089500240A9412161306140605060895E5
S11305B0092E0394000C11F4882352F0BB0F40F46D
S11305C0BF2B11F460FF04C06F5F7F4F8F4F9F4FAD
S11305D0089557FD9058440F551F59F05F3F71F02F
S11305E04795880F97FB991F61F09F3F79F0879596
S11305F00895121613061406551FF2CF4695F1DF1F
S113060008C0161617061806991FF1CF86957105AE
S1130610610508940895E894BB2766277727CB01E2
S113062097F908950E94840308F48FEF08950E94B7
S11306302A030C94D8020E94CA0238F00E94D10204
S113064020F0952311F00C94C1020C94C7021124DC
S11306500C940C030E94E90270F3959FC1F3950F6B
S113066050E0551F629FF001729FBB27F00DB11D32
S1130670639FAA27F00DB11DAA1F649F6627B00DC2
S1130680A11D661F829F2227B00DA11D621F739FAB
S1130690B00DA11D621F839FA00D611D221F749FB9
S11306A03327A00D611D231F849F600D211D822F00
S11306B0762F6A2F11249F5750409AF0F1F0882327
S11306C04AF0EE0FFF1FBB1F661F771F881F915054
S11306D05040A9F79E3F510580F00C94C1020C9440
S11306E00C035F3FE4F3983ED4F3869577956795C2
S11306F0B795F795E7959F5FC1F7FE2B880F911D7E
S11307009695879597F90895990F0008550FAA0BA8
S1130710E0E8FEEF16161706E807F907C0F0121610
S11307201306E407F50798F0621B730B840B950B13
S113073039F40A2661F0232B242B252B21F4089568
S11307400A2609F4A140A6958FEF811D811D089505
S113075090913501E0913001F0913101992311F02C
S1130760849101C080812FEB280F2A3110F4805E20
S11307700895803249F49F012F5F3F4F3093310138
S113078020933001EF2B31F708951F93CF93DF931C
S11307900E94A803C0E0D0E01AE090ED980F9A30D0
S11307A0B8F49E01129FE001139FD00D1124C80FCD
S11307B0D11D87FDDA95E097809130019091310148
S11307C0019690933101809330010E94A803E5CFF4
S11307D0CE01DF91CF911F91089510926F0083E2B3
S11307E08093800081E1809381001092820080E1F7
S11307F097E2909389008093880010928B00109266
S11308008A00229A789408958F929F92AF92BF9211
S1130810DF92EF92FF920F931F93CF93DF935C01CC
S11308208B01D42E80913201811105C081E0809327
S113083032010E94ED0310920901B7FE05C0E8944D
S1130840B7F82AE0F22E02C0FF24F394E09081006E
S11308502E2D287FE22E48ECF49EC00111248A1527
S11308609B05E0F4E50151E1A51657E2B50610F049
S1130870C0E1D7E2BE017695679580E090E06058CC
S1130880794687469F4F4E01A12CB12CA5019401B6
S11308900E94C40C59018E2D816024C0C8E2FC9EC4
S11308A0C02D1124D0E0CA15DB0508F4E501BE0112
S11308B0769567959E0140E050E08AE0F81207C003
S11308C080E090E0605E734481449F4F06C080E006
S11308D090E060537D4E8C4E9F4F0E94C40C590192
S11308E08E2D8260882E2AE0F21207C0CE01059672
S11308F06AE070E00E949C0CEB01C83E43E0D40720
S113090059F09801DE010E94050D28EE33E040E025
S113091050E00E94E60C890110926F0080928100E1
S1130920B0928900A09288002091880030918900BB
S11309304D2D403108F04FE080E190E0841B910997
S1130940A90102C0569547958A95E2F750938B000A
S113095040938A00109338010093370186B38FEFD8
S113096086BB81E080936F00DF91CF911F910F913F
S1130970FF90EF90DF90BF90AF909F908F9008957D
S1130980CF93DF93EB018F3F11F0411105C040E09D
S1130990BE0188EE93E043C0813130F050EF580F30
S11309A0503618F05FE501C050E0852F6CE00E94DE
S11309B0900C682F74EF760390011124250F311DDC
S11309C02C30310540F4F901EE0FFF1FEE5EFE4FAF
S11309D02081318102C020E030E0873081F0082E90
S11309E002C0220F331F0A94E2F7823028F0C901B3
S11309F005966AE070E00CC0C90190580CC0C901AA
S1130A0036E0880F991F3A95E1F7029665E070E0A9
S1130A100E949C0CCB01403108F04FE0BE010E94C3
S1130A200404DF91CF910895A2E0B0E0EAE1F5E09B
S1130A300C94160D9090080180913401882321F0C4
S1130A4060913301611117C077247394B0ECAB2E1D
S1130A50BDE5BB2E1AE0612E04E0802E80EDC82E89
S1130A6087E0D82E94E0E92EF12C04EF11E02FE07A
S1130A70422E512C15C070E040E088EE93E00E94B5
S1130A8004041092330117C18636D4F5813609F473
S1130A90A9C07CF58C3309F460C08E3381F493943F
S1130AA00E94A80320913001309131012F5F3F4F04
S1130AB03093310120933001853631F752C08132B1
S1130AC009F08BC080920801D0920701C092060100
S1130AD0F0920501E09204011093030100930201D6
S1130AE0509201014092000110923401A4E09A2E28
S1130AF0D7CF8336A1F10CF478C010E082E077C040
S1130B008D36C1F194F4873691F174F18C3609F085
S1130B1064C00E94C503BC01909305018093040145
S1130B20809106019091070151C08237C9F14CF4BC
S1130B308F3609F052C00E94C503982E8093080195
S1130B40AFCF843781F1863709F047C00E94C503CF
S1130B509093010180930001A3CF9A94A1CF10E058
S1130B6020C010E084E043C010E085E040C010E005
S1130B7087E03DC00E94A8038C3619F4109234011A
S1130B8004C07092340110923301209130013091ED
S1130B9031012F5F3F4F309331012093300180CFDB
S1130BA011E080E024C00E94C503BC01C5010E947D
S1130BB09C0C669EC001679E900D112490930701C2
S1130BC08093060160910401709105010E949C0CC0
S1130BD0709303016093020163CF1092310110926C
S1130BE0300169C010E089E002C010E08BE0082FFA
S1130BF09CE0999E000D11240E94A803982F977FD2
S1130C00933261F420913001309131012F5F3F4FD5
S1130C1030933101209330010F5FEECF8D3271F4A8
S1130C2020913001309131012F5F3F4F30933101DA
S1130C302093300101500E94A803F0CF609102017B
S1130C40709103018153883050F4E0900601F090D4
S1130C5007010E94C503BC01C7010E949C0C7B01D3
S1130C60F694E79469837A830E94A80369817A8160
S1130C708E3269F420913001309131012F5F3F4F62
S1130C8030933101209330016E0D7F1DE9CF8091A7
S1130C903401882339F09B0136952795209333013D
S1130CA0621B710940910001112311F08FEF01C003
S1130CB0802F0E94C0042296E0E10C94320D1F9212
S1130CC00F920FB60F9211242F933F934F935F937C
S1130CD06F937F938F939F93AF93BF93EF93FF9300
S1130CE080913701909138019C0121503109309352
S1130CF0380120933701892B11F510926F007894F5
S1130D0080918100887F81608093810080E197E2F7
S1130D10909389008093880010928B0010928A002F
S1130D2081E0809309018091300190913101892BF8
S1130D3031F080913601811102C00E941405FF91A7
S1130D40EF91BF91AF919F918F917F916F915F913F
S1130D504F913F912F910F900FBE0F901F901895B8
S1130D6010926F00909331018093300181E0809361
S1130D703501109233010E94140508950E94B006B3
S1130D80089581E090E06F9364E06A95F1F76F91C4
S1130D900197C9F708950F931F93CF93DF931AB167
S1130DA057985A98289AC0E0D0E00E94C1065C9AED
S1130DB00E94C10609B15C980E94C1065C9A0E9417
S1130DC0C1065C98249607FF10C0AE0160E070E095
S1130DD08091390190913A01A0913B01B0913C017D
S1130DE0481759076A077B0700F31AB9DF91CF91B7
S1130DF01F910F91089595B1282F217030E0220F93
S1130E00331F482F467068E0469FA0011124242B0D
S1130E109D7C292B25B99BB188708295807F9F7713
S1130E20892B8BB95C9A0E94C1065C980E94C1060A
S1130E300895A0E0B0E0EFE1F7E00C941F0DC82F97
S1130E40D62EE42E80918F01811105C081E080931C
S1130E508F010E945F070E94CB0614B1D5B1FAB08E
S1130E600BB12898DD2011F05A9A01C05A9894B118
S1130E70926394B9579A81E0E81629F08C2F8295F1
S1130E808F700E94FB068C2F8F700E94FB06FAB8AD
S1130E900BB914B9D5B9CDB7DEB7E7E00C943B0D67
S1130EA042E060E00E941907089542E061E00E9478
S1130EB01907089541E060E00E941907089580E150
S1130EC097E2A0E0B0E08093390190933A01A093B7
S1130ED03B01B0933C01529A209A549A8EE190E0DF
S1130EE00E94400983E00E945A0786E090E00E9435
S1130EF0400983E00E945A0782E090E00E94400982
S1130F0083E00E945A0782E090E00E94400982E058
S1130F100E945A0782E090E00E94400988E20E9401
S1130F20500788E00E94500781E00E94500786E045
S1130F300E9450078CE00E945007089581E00E94AF
S1130F40500780913F0190914001892BF9F060E0B6
S1130F50A0E2262F30E070910A0180910B0190E00D
S1130F600197789FA001799F500D1124241735070C
S1130F704CF4E0913F01F0914001E20FF31FA08394
S1130F806F5FE7CF10923D0110923E0108950E94D9
S1130F909E070895AAE0B0E0E0EDF7E00C941E0D82
S1130FA01AE05AE0C52ED12CE12CF12C062FA70112
S1130FB096010E94C40CCA01B9011150E1E0F0E0AD
S1130FC0EC0FFD1FE10FF11D005D2AE0629F001987
S1130FD011240083611571058105910539F71A30D3
S1130FE058F4E1E0F0E0EC0FFD1FE10FF11D80810A
S1130FF00E9455071F5FF3CF2A96E8E00C943A0D40
S1131000CF92DF92EF92FF926B017C0197FF0BC0AE
S1131010F094E094D094C094C11CD11CE11CF11C48
S11310208DE20E945507C701B6010E94CA07FF90CE
S1131030EF90DF90CF9008950E9400080895A5E0F6
S1131040B0E0E5E2F8E00C94230D182F80E88983E2
S113105080EC8A8384E98B8384ED8C83FE01E60F24
S1131060F11D8181810F6D830E94500710933D0112
S11310706D8160933E012596E3E00C943F0D0E9440
S11310801F080895883058F491E001C0990F8A959B
S1131090EAF7892FAAE2B0E0EBE2F0E021C08E305B
S11310A060F498EF980F81E001C0880F9A95EAF7F1
S11310B0A4E2B0E0E5E2F0E013C0853160F492EF21
S11310C0980F81E001C0880F9A95EAF7A7E2B0E093
S11310D0E8E2F0E005C080E0A0E0B0E0E0E0F0E0AD
S11310E06F3F19F49081982709C0662319F0908105
S11310F0982B04C02081982F9095922390839C91E3
S1131100982B9C93089583EF8093B00084BD82E074
S11311108093B10085BD1092B4001092B30018BC46
S113112017BC60E086E00E94420860E085E00E940F
S1131130420860E08BE00E94420860E083E00E9485
S11311404208089580919001811105C081E0809347
S113115090010E9483080895CF93DF93EC010E94CD
S1131160A208D7FF05C0D195C195D10981E001C07E
S113117080E0CF3FD10519F014F0CFEFD0E0882301
S113118019F018BCC7BD02C0C8BD17BCDF91CF9110
S11311900895CF93DF93EC010E94A208D7FF05C006
S11311A0D195C195D10981E001C080E0CF3FD1053F
S11311B019F014F0CFEFD0E0882329F01092B40096
S11311C0C093B30004C0C093B4001092B300DF9185
S11311D0CF910895CF93DF93EB010E94AC08CE0129
S11311E00E94C908DF91CF9108950E94EA080895EA
S11311F02F928F939F932FB680914801909149012C
S11312000196809348019093490190E080914A01AE
S1131210891F80934A01909142019C5F90934201FF
S11312208091410180519742C0F090934201809394
S113123041018091430190914401019680934301BF
S11312409093440190E080914501891F809345016A
S113125080914601891F809346012FBE9F918F91F3
S11312602F90189528EE33E0019748F0F9016F9319
S113127064E06A95F1F76F913197C9F7F5CF089556
S11312800E9432090895E0E7F0E080818E7F808338
S1131290A0EBB0E08C9183608C93A1EBB0E08C91D7
S11312A0807F8C938C9182608C93B89A80818160CA
S11312B080837894089580919101811105C081E023
S11312C0809391010E94430908950E945B09E0E71D
S11312D0F0E080818E7F80836091430170914401AE
S11312E080914501909146012081216020830895D9
S11312F00E94650908950E945B09E0E7F0E080819F
S11313008E7F808310924301109244011092450114
S11313101092460110924201109241018081816035
S113132080830895462FBC018BE491E00E94150C44
S113133008950F93CF93DF9300D000D01F92CDB7C1
S1131340DEB79C0185E0EAE2F1E0DE01119601904E
S11313500D928A95E1F7662311F00FEF01C003E1C6
S113136045E0BE016F5F7F4F8BE491E00E946B0A02
S11313708BE491E00E94420A0E947B090F900F9037
S11313800F900F900F90DF91CF910F91089560E02F
S11313900E94990908958BE491E00E94720C0895CB
S11313A06F9364E06A95F1F76F910197C9F7089517
S11313B0FC01118210821382128215821482168219
S11313C0683068F489E290E0918380838BE290E056
S11313D0938382838AE290E0958384831FC06E3076
S11313E070F483E290E09183808385E290E09383BC
S11313F0828384E290E09583848368500FC06531D2
S113140098F486E290E09183808388E290E093836D
S1131410828387E290E0958384836E5081E001C0EB
S1131420880F6A95EAF786830895A7E0B0E0EBE1B8
S1131430FAE00C94220D8C01FC01118210821382BB
S113144012821582148217821682613118F080E1AB
S1131450808702C0FC016087F801208B642FCE01D5
S113146001960E94D8098F81F80181878B819C8124
S1131470938782878D819E81958784872796E4E070
S11314800C943E0DFC01A485B585109779F08C91E0
S11314909185892B8C93A285B3859C9181858095B8
S11314A089238C9388EC90E00E94D0090895FC0174
S11314B0A485B585109771F08C919185892B8C93B7
S11314C0A285B3858C919185892B8C9388EC90E0CF
S11314D00E94D0090895A7E0B0E0E1E7FAE00C9497
S11314E0170D7C014B01642F3901402F20E00E942D
S11314F0150A87010F5B1F4FF80110826701F2E4A0
S1131500CF0ED11CF60110825701F3E4AF0EB11CCB
S1131510F5011082F70177866686512CF7018085E4
S1131520581650F5652C712CF401E60DF71D6081F9
S1131530CE0101960E94D8092F81F701E60DF71D0F
S1131540218B89819A81F301EE0FFF1FEE0DFF1DA0
S113155092A381A38332910511F4F80108C0863265
S1131560910511F4F60103C0899721F4F5018081F6
S1131570822B80835394D2CF2796EFE00C94330DC3
S1131580A0E0B0E0E6ECFAE00C94190DEC015B018C
S11315906C0181E4C80ED11CF60180807E01F2E466
S11315A0EF0EF11CF70170808E010D5B1F4FF801E7
S11315B0908080E09885891748F4F501E80FF11DC3
S11315C0E80FF11D118210828F5FF4CF84B1F60110
S11315D09081892B84B987B1F7019081892B87B9D0
S11315E08AB1F8019081892B8AB985B1F60190817D
S11315F0892B85B988B1F7019081892B88B98BB182
S1131600F8019081892B8BB98AE090E00E94D0097F
S113161094B1F60180818095892384B997B1F7014B
S113162080818095892387B99AB1F801808180955A
S113163089238AB995B1F60180818095892385B97A
S113164098B1F70180818095892388B99BB1F8010D
S11316508081809589238BB9E090B000D090B1004F
S11316608091B00083608093B00082E08093B100E9
S11316704091B20080E090E02E853F858217930769
S113168020F5C090B2002C2D241B820F911D03B1B4
S1131690081132C0F6B0F7102FC029B129112CC09F
S11316A010C0212F30E0A901440F551FF501E40FAC
S11316B0F51F60817181672B21F11F5F2885121747
S11316C080F37F2C802E4C2DD7CFE092B000D092A7
S11316D0B10020E08885281730F5F501E20FF11DEF
S11316E0E20FF11D80819181892B21F48E859F85E4
S11316F0918380832F5FEECF03B1F6B099B010E0F1
S1131700DDCFDE01A40FB51F91960D90BC91A02DE5
S11317104C91DE01A20FB31F51962C91422369F61E
S113172091838083CACFCDB7DEB7EDE00C94350D3D
S1131730EF92FF920F931F93CF93DF93FC019B01D2
S1131740F0907C0000917A0047B118B180917A0042
S113175086FDFCCF80E09085891748F4D901A80F55
S1131760B11DA80FB11D1D921C928F5FF4CF97B1CC
S113177082A18095892387B998B182A18095892314
S113178088B987E880937A00E12C81A1E81610F0EB
S1131790E12C29C050E08085581718F5A52FB0E03A
S11317A0EF01CA0FDB1F8989806480937C008091DC
S11317B07A00806480937A0080917A0086FDFCCF61
S11317C06091780070917900AA0FBB1FA20FB31F1C
S11317D08D919C911197860F971F8D939C935F5FBA
S11317E0DACFE394D2CF8085E816A0F4E901CE0DD8
S11317F0D11DCE0DD11D61A170E0CB0195958795CA
S1131800A881B9818A0F9B1F0E949C0C79836883ED
S1131810E394E9CFF0927C0000937A0018B947B9B9
S1131820CDB7DEB7E6E00C943C0DA0E2B0E0EBE10E
S1131830FCE00C941F0D8C017B01D42E8FEF840FE0
S1131840823018F4C8010E94570AD80150968C912E
S1131850B701811110C0C8010E94C00AC8010E94CA
S1131860420AB2E0DB123AC0BE016F5F7F4FC8018B
S11318700E94C00A0FC0C8010E94980BC8010E94B0
S1131880420AE2E0DE122AC0BE016F5F7F4FC80148
S11318900E94980B40E0F80180854817F8F4842FE3
S11318A090E0880F991FF701E80FF91F21E030E05D
S11318B02C0F3D1F820F931FD8011E962D913C9132
S11318C01F97DC018D919C91281B390B808191819C
S11318D0820F931F918380834F5FDDCFA096E7E053
S11318E00C943B0DCF93DF93EC018A819B8100978D
S11318F011F00E94E90D8E819F81009711F00E94E2
S1131900E90D88819981009711F00E94E90D8C817D
S11319109D81009711F00E94E90DDF91CF91089508
S1131920991B79E004C0991F961708F0961B881F2D
S11319307A95C9F780950895AA1BBB1B51E107C08E
S1131940AA1FBB1FA617B70710F0A61BB70B881F4B
S1131950991F5A95A9F780959095BC01CD010895DA
S113196097FB072E16F4009407D077FD09D00E9448
S11319709C0C07FC05D03EF4909581959F4F0895EB
S1131980709561957F4F0895A1E21A2EAA1BBB1B87
S1131990FD010DC0AA1FBB1FEE1FFF1FA217B30737
S11319A0E407F50720F0A21BB30BE40BF50B661F4D
S11319B0771F881F991F1A9469F760957095809511
S11319C090959B01AC01BD01CF010895052E97FBB5
S11319D01EF400940E94FD0C57FD07D00E94C40C15
S11319E007FC03D04EF40C94FD0C509540953095B3
S11319F021953F4F4F4F5F4F089590958095709577
S1131A0061957F4F8F4F9F4F0895A29FB001B39F61
S1131A10C001A39F700D811D1124911DB29F700DF3
S1131A20811D1124911D08952F923F924F925F9230
S1131A306F927F928F929F92AF92BF92CF92DF92DA
S1131A40EF92FF920F931F93CF93DF93CDB7DEB73F
S1131A50CA1BDB0B0FB6F894DEBF0FBECDBF0994D3
S1131A602A88398848885F846E847D848C849B842A
S1131A70AA84B984C884DF80EE80FD800C811B8138
S1131A80AA81B981CE0FD11D0FB6F894DEBF0FBE67
S1131A90CDBFED010895EE0FFF1F0590F491E02DE9
S1131AA009940F931F93CF93DF938230910510F421
S1131AB082E090E0E0919401F091950120E030E023
S1131AC0A0E0B0E0309719F1408151810281138187
S1131AD048175907C8F08417950769F4109731F02F
S1131AE012960C93129713961C9327C0009394019B
S1131AF01093950122C02115310519F0421753079F
S1131B0018F49A01BD01EF01DF01F801DBCF2115C3
S1131B103105F9F0281B390B2430310580F48A8112
S1131B209B816115710521F0FB019383828304C0BD
S1131B309093950180939401FE01329644C0FE0176
S1131B40E20FF31F81939193225031093983288343
S1131B503AC02091920130919301232B41F42091BA
S1131B600E0130910F013093930120939201209143
S1131B700C0130910D012115310541F42DB73EB70B
S1131B804091100150911101241B350BE0919201F9
S1131B90F0919301E217F307A0F42E1B3F0B2817D3
S1131BA0390778F0AC014E5F5F4F2417350748F0D2
S1131BB04E0F5F1F50939301409392018193919331
S1131BC002C0E0E0F0E0CF01DF91CF911F910F91CF
S1131BD00895CF93DF93009709F481C0FC013297F5
S1131BE013821282A0919401B0919501109781F40F
S1131BF020813181820F931F2091920130919301B2
S1131C002817390751F5F0939301E093920167C0C7
S1131C10ED0120E030E0CE17DF0740F44A815B811C
S1131C209E0141155105F1F0EA01F5CFD383C2833A
S1131C3040815181840F951FC817D90759F48881B1
S1131C409981840F951F0296918380838A819B8159
S1131C50938382832115310529F4F0939501E09350
S1131C6094013DC0E901FB83EA8349915991C40F72
S1131C70D51FEC17FD0761F480819181840F951FB6
S1131C800296E90199838883828193819B838A8365
S1131C90E0E0F0E012968D919C911397009719F073
S1131CA0FD01DC01F7CF8D919C9111979D012E5F71
S1131CB03F4F820F931F2091920130919301281777
S1131CC0390769F4309729F4109295011092940120
S1131CD002C013821282B0939301A0939201DF9108
S1131CE0CF91089510E0C9E3D0E004C0FE010E9442
S1111CF04B0D2196CA33D107C9F7F894FFCFE4
S1131CFE0F00F4010400D00704010802000096014D
S1131D0E20009C01B501CF01EA0107022602470219
S1131D1E69028E02B502DE020A030E0F10111200C2
S9030000FC
