S0170000655661646572732D73756D6F626F742E737265630D
S11300000C943A000C9457000C9457000C9457002D
S11300100C9457000C9457000C9457000C94570000
S11300200C9457000C94FC060C9457000C94570045
S11300300C9457000C94E4050C9457000C9457004E
S11300400C9457000C9457000C9457000C945700D0
S11300500C9457000C9457000C9457000C945700C0
S11300600C9457000C9457003E6733323E3E633382
S11300703200CF0711241FBECFEFD8E0DEBFCDBFC3
S113008011E0A0E0B1E0E6E0F9E102C005900D92D4
S1130090AE32B107D9F721E0AEE2B1E001C01D9262
S11300A0AB38B207E1F70E9406010C94760C0C946D
S11300B00000CF92DF92EF92FF920F931F93CF93A2
S11300C0DF93CDB7DEB72A970FB6F894DEBF0FBE25
S11300D0CDBF6C017B0161E00E949607F60180812F
S11300E091819195819591099A83898382819381E4
S11300F09195819591099C838B831E821D828681B3
S1130100978198878F83808591859A87898780E0F6
S113011090E00EC0FC01EE0FFF1F21E030E02C0F39
S11301203D1FE20FF31F20813181020F131F01963F
S1130130853091057CF3C7016AE070E00E94B40A3F
S1130140C8010E94B40ACB0101972A960FB6F8940D
S1130150DEBF0FBECDBFDF91CF911F910F91FF90F6
S1130160EF90DF90CF9008950F931F93CF93DF9379
S1130170EC018B0161E00E94960720E030E080E012
S113018090E011C0F901EE0FFF1FEC0FFD1F60811D
S11301907181A801485C51096417750710F481E066
S11301A090E02F5F3F4F2530310564F3DF91CF910D
S11301B01F910F910895CF93DF93EC01CB010E941F
S11301C0F906CE010E944407DF91CF910895CF93A1
S11301D0DF93EC01CB019195819591090E94F90679
S11301E0CE010E944407DF91CF910895CF93DF930E
S11301F0EC01CB0166277727681B790B0E94F9066F
S1130200CE010E944407DF91CF910895CF93DF93ED
S1130210CDB7DEB72E970FB6F894DEBF0FBECDBFB5
S113022088E690E00E94430680ED97E00E94CB07A9
S11302300E947C076B017C01812C912C54011B864C
S11302401C861D861E8623C060ED77E0CE010196D4
S11302500E9459002DE0289FB001299F700D1124A0
S11302606F3F710519F014F06FEF70E077232CF4F1
S113027080E090E00E94F6000AC080E090E00E94D6
S1130280E70005C073016201812C912C540160EDDB
S113029077E0CE0101960E94B4000197A9F20E9472
S11302A07C072B013C01DC01CB018C199D09AE09B3
S11302B0BF096C017D01BC01CD010E940B0220E04D
S11302C030E040E85DE30E949C029B01AC016B8539
S11302D07C858D859E850E949D016B877C878D879B
S11302E09E878C0C9D1CAE1CBF1C20E030E040E8B7
S11302F05FE30E9497028823A4F064E670E080E044
S113030090E00E94DB0020E030E040E85FE36B8592
S11303107C858D859E850E949C016B877C878D875B
S11303209E8798EE891693E09906A104B1040CF017
S1130330A9CF73016201ABCF5058BB27AA270E94F3
S1130340B4010C945D020E944F0238F00E945602E0
S113035020F039F49F3F19F426F40C944C020EF467
S1130360E095E7FB0C944602E92F0E946E0258F3D5
S1130370BA17620773078407950720F079F4A6F586
S11303800C9490020EF4E0950B2EBA2FA02D0B01C5
S1130390B90190010C01CA01A0011124FF27591BC6
S11303A099F0593F50F4503E68F11A16F040A22FCC
S11303B0232F342F4427585FF3CF4695379527953D
S11303C0A795F0405395C9F77EF41F16BA0B620B3C
S11303D0730B840BBAF09150A1F0FF0FBB1F661F83
S11303E0771F881FC2F70EC0BA0F621F731F841FC6
S11303F048F4879577956795B795F7959E3F08F0EC
S1130400B0CF9395880F08F09927EE0F97958795AD
S11304100895E89409C097FB3EF4909580957095F3
S113042061957F4F8F4F9F4F9923A9F0F92F96E93C
S1130430BB279395F695879577956795B795F111B1
S1130440F8CFFAF4BB0F11F460FF1BC06F5F7F4F4E
S11304508F4F9F4F16C0882311F096E911C0772360
S113046021F09EE8872F762F05C0662371F096E869
S1130470862F70E060E02AF09A95660F771F881F38
S1130480DAF7880F9695879597F9089597F99F67F6
S113049080E870E060E008959FEF80EC0895002408
S11304A00A941616170618060906089500240A94D5
S11304B012161306140605060895092E0394000C5B
S11304C011F4882352F0BB0F40F4BF2B11F460FFEA
S11304D004C06F5F7F4F8F4F9F4F089557FD905813
S11304E0440F551F59F05F3F71F04795880F97FBF4
S11304F0991F61F09F3F79F08795089512161306AE
S11305001406551FF2CF4695F1DF08C016161706DC
S11305101806991FF1CF8695710561050894089511
S1130520E894BB2766277727CB0197F908950E94A3
S1130530090308F48FEF08950E94AF020C945D0242
S11305400E944F0238F00E94560220F0952311F0C9
S11305500C9446020C944C0211240C9491020E94B7
S11305606E0270F3959FC1F3950F50E0551F629F83
S1130570F001729FBB27F00DB11D639FAA27F00DF8
S1130580B11DAA1F649F6627B00DA11D661F829F1F
S11305902227B00DA11D621F739FB00DA11D621F04
S11305A0839FA00D611D221F749F3327A00D611D21
S11305B0231F849F600D211D822F762F6A2F112403
S11305C09F5750409AF0F1F088234AF0EE0FFF1F36
S11305D0BB1F661F771F881F91505040A9F79E3F8D
S11305E0510580F00C9446020C9491025F3FE4F3B1
S11305F0983ED4F3869577956795B795F795E795E3
S11306009F5FC1F7FE2B880F911D9695879597F9EB
S11306100895990F0008550FAA0BE0E8FEEF16168F
S11306201706E807F907C0F012161306E407F507E2
S113063098F0621B730B840B950B39F40A2661F056
S1130640232B242B252B21F408950A2609F4A140F9
S1130650A6958FEF811D811D089590913301E0913E
S11306602E01F0912F01992311F0849101C0808112
S11306702FEB280F2A3110F4805E0895803249F45C
S11306809F012F5F3F4F30932F0120932E01EF2BBB
S113069031F708951F93CF93DF930E942D03C0E099
S11306A0D0E01AE090ED980F9A30B8F49E01129FB2
S11306B0E001139FD00D1124C80FD11D87FDDA95D9
S11306C0E09780912E0190912F01019690932F0134
S11306D080932E010E942D03E5CFCE01DF91CF91AF
S11306E01F91089510926F0083E28093800081E14E
S11306F0809381001092820080E197E290938900B8
S11307008093880010928B0010928A00229A789429
S113071008958F929F92AF92BF92DF92EF92FF92D1
S11307200F931F93CF93DF935C018B01D42E8091A1
S11307303001811105C081E0809330010E94720371
S113074010920901B7FE05C0E894B7F82AE0F22E2A
S113075002C0FF24F394E09081002E2D287FE22E26
S113076048ECF49EC00111248A159B05E0F4E501D0
S113077051E1A51657E2B50610F0C0E1D7E2BE017B
S11307807695679580E090E06058794687469F4F5C
S11307904E01A12CB12CA50194010E94C80A590153
S11307A08E2D816024C0C8E2FC9EC02D1124D0E0AF
S11307B0CA15DB0508F4E501BE01769567959E012F
S11307C040E050E08AE0F81207C080E090E0605E0C
S11307D0734481449F4F06C080E090E060537D4E97
S11307E08C4E9F4F0E94C80A59018E2D8260882E1C
S11307F02AE0F21207C0CE0105966AE070E00E947A
S1130800A00AEB01C83E43E0D40759F09801DE0189
S11308100E94090B28EE33E040E050E00E94EA0A0F
S1130820890110926F0080928100B0928900A09299
S1130830880020918800309189004D2D403108F0C6
S11308404FE080E190E0841B9109A90102C0569514
S113085047958A95E2F750938B0040938A00109352
S113086036010093350186B38FEF86BB81E0809318
S11308706F00DF91CF911F910F91FF90EF90DF9068
S1130880BF90AF909F908F900895CF93DF93EB012B
S11308908F3F11F0411105C040E0BE0188EE93E0A6
S11308A043C0813130F050EF580F503618F05FE5F7
S11308B001C050E0852F6CE00E94940A682F74EF09
S11308C0760390011124250F311D2C30310540F49D
S11308D0F901EE0FFF1FE05FFE4F2081318102C05E
S11308E020E030E0873081F0082E02C0220F331F51
S11308F00A94E2F7823028F0C90105966AE070E0B4
S11309000CC0C90190580CC0C90136E0880F991F6A
S11309103A95E1F7029665E070E00E94A00ACB01E7
S1130920403108F04FE0BE010E948903DF91CF916E
S11309300895A2E0B0E0EFE9F4E00C941A0B909073
S1130940080180913201882321F060913101611105
S113095017C077247394B0ECAB2EBDE5BB2E1AE020
S1130960612E04E0802E80EDC82E87E0D82E94E01E
S1130970E92EF12C04EF11E02FE0422E512C15C08A
S113098070E040E088EE93E00E9489031092310108
S113099017C18636D4F5813609F4A9C07CF58C33A9
S11309A009F460C08E3381F493940E942D03209146
S11309B02E0130912F012F5F3F4F30932F01209351
S11309C02E01853631F752C0813209F08BC08092F6
S11309D00801D0920701C0920601F0920501E0924D
S11309E0040110930301009302015092010140920B
S11309F0000110923201A4E09A2ED7CF8336A1F1E0
S1130A000CF478C010E082E077C08D36C1F194F424
S1130A10873691F174F18C3609F064C00E944A0360
S1130A20BC0190930501809304018091060190918B
S1130A30070151C08237C9F14CF48F3609F052C016
S1130A400E944A03982E80930801AFCF843781F126
S1130A50863709F047C00E944A03909301018093AE
S1130A600001A3CF9A94A1CF10E020C010E084E04D
S1130A7043C010E085E040C010E087E03DC00E9424
S1130A802D038C3619F41092320104C07092320195
S1130A901092310120912E0130912F012F5F3F4F91
S1130AA030932F0120932E0180CF11E080E024C0E9
S1130AB00E944A03BC01C5010E94A00A669EC001AF
S1130AC0679E900D11249093070180930601609115
S1130AD00401709105010E94A00A709303016093C0
S1130AE0020163CF10922F0110922E0169C010E011
S1130AF089E002C010E08BE0082F9CE0999E000D75
S1130B0011240E942D03982F977F933261F4209132
S1130B102E0130912F012F5F3F4F30932F012093EF
S1130B202E010F5FEECF8D3271F420912E013091A2
S1130B302F012F5F3F4F30932F0120932E0101503F
S1130B400E942D03F0CF6091020170910301815343
S1130B50883050F4E0900601F09007010E944A03A7
S1130B60BC01C7010E94A00A7B01F694E794698343
S1130B707A830E942D0369817A818E3269F42091EF
S1130B802E0130912F012F5F3F4F30932F0120937F
S1130B902E016E0D7F1DE9CF80913201882339F03B
S1130BA09B013695279520933101621B7109409171
S1130BB00001112311F08FEF01C0802F0E94450422
S1130BC02296E0E10C94360B1F920F920FB60F920F
S1130BD011242F933F934F935F936F937F938F933E
S1130BE09F93AF93BF93EF93FF93809135019091BF
S1130BF036019C012150310930933601209335018F
S1130C00892B11F510926F00789480918100887F70
S1130C1081608093810080E197E2909389008093C2
S1130C20880010928B0010928A0081E08093090161
S1130C3080912E0190912F01892B31F08091340104
S1130C40811102C00E949904FF91EF91BF91AF916D
S1130C509F918F917F916F915F914F913F912F91D0
S1130C600F900FBE0F901F90189510926F009093E5
S1130C702F0180932E0181E0809333011092310182
S1130C800E94990408950E9435060895883058F406
S1130C9091E001C0990F8A95EAF7892FAAE2B0E0A2
S1130CA0EBE2F0E021C08E3060F498EF980F81E021
S1130CB001C0880F9A95EAF7A4E2B0E0E5E2F0E01B
S1130CC013C0853160F492EF980F81E001C0880F62
S1130CD09A95EAF7A7E2B0E0E8E2F0E005C080E028
S1130CE0A0E0B0E0E0E0F0E06F3F19F490819827D5
S1130CF009C0662319F09081982B04C02081982F95
S1130D009095922390839C91982B9C93089583EFC4
S1130D108093B00084BD82E08093B10085BD1092C1
S1130D20B4001092B30018BC17BC60E086E00E94C7
S1130D30460660E085E00E94460660E08BE00E9483
S1130D40460660E083E00E9446060895809185018E
S1130D50811105C081E0809385010E948706089572
S1130D60CF93DF93EC010E94A606D7FF05C0D1956F
S1130D70C195D10981E001C080E0CF3FD10519F0D0
S1130D8014F0CFEFD0E0882319F018BCC7BD02C01F
S1130D90C8BD17BCDF91CF910895CF93DF93EC01C9
S1130DA00E94A606D7FF05C0D195C195D10981E05F
S1130DB001C080E0CF3FD10519F014F0CFEFD0E0AF
S1130DC0882329F01092B400C093B30004C0C093E8
S1130DD0B4001092B300DF91CF910895CF93DF93C5
S1130DE0EB010E94B006CE010E94CD06DF91CF91A7
S1130DF008950E94EE0608952F928F939F932FB625
S1130E0080913E0190913F01019680933E01909321
S1130E103F0190E080914001891F809340019091AF
S1130E2038019C5F9093380180913701805197423B
S1130E30C0F09093380180933701809139019091EB
S1130E403A0101968093390190933A0190E08091A0
S1130E503B01891F80933B0180913C01891F809352
S1130E603C012FBE9F918F912F90189528EE33E06F
S1130E70019748F0F9016F9364E06A95F1F76F9177
S1130E803197C9F7F5CF08950E9436070895E0E732
S1130E90F0E080818E7F8083A0EBB0E08C91836052
S1130EA08C93A1EBB0E08C91807F8C938C918260C9
S1130EB08C93B89A8081816080837894089580911E
S1130EC08601811105C081E0809386010E94470755
S1130ED008950E945F07E0E7F0E080818E7F8083C1
S1130EE06091390170913A0180913B0190913C01EC
S1130EF020812160208308950E94690708950E943B
S1130F005F07E0E7F0E080818E7F808310923901F3
S1130F1010923A0110923B0110923C011092380158
S1130F20109237018081816080830895462FBC012F
S1130F3081E491E00E94190A08950F93CF93DF93FF
S1130F4000D000D01F92CDB7DEB79C0185E0E8E267
S1130F50F1E0DE01119601900D928A95E1F7662386
S1130F6011F00FEF01C003E145E0BE016F5F7F4F59
S1130F7081E491E00E946F0881E491E00E944608B8
S1130F800E947F070F900F900F900F900F90DF91AA
S1130F90CF910F91089560E00E949D07089581E428
S1130FA091E00E94760A08956F9364E06A95F1F7E0
S1130FB06F910197C9F70895FC0111821082138281
S1130FC01282158214821682683068F489E290E0F5
S1130FD0918380838BE290E0938382838AE290E022
S1130FE0958384831FC06E3070F483E290E0918314
S1130FF0808385E290E09383828384E290E095830A
S1131000848368500FC0653198F486E290E0918340
S1131010808388E290E09383828387E290E09583E3
S113102084836E5081E001C0880F6A95EAF7868355
S11310300895A7E0B0E0EFE1F8E00C94260B8C01F2
S1131040FC0111821082138212821582148217828B
S11310501682613118F080E1808702C0FC0160874C
S1131060F801208B642FCE0101960E94DC078F814A
S1131070F80181878B819C81938782878D819E81F2
S1131080958784872796E4E00C94420BFC01A485A1
S1131090B585109779F08C919185892B8C93A285D5
S11310A0B3859C918185809589238C9388EC90E00D
S11310B00E94D4070895FC01A485B585109771F0AA
S11310C08C919185892B8C93A285B3858C91918584
S11310D0892B8C9388EC90E00E94D4070895A7E0B4
S11310E0B0E0E5E7F8E00C941B0B7C014B01642FA6
S11310F03901402F20E00E94190887010F5B1F4F20
S1131100F80110826701F2E4CF0ED11CF6011082BF
S11311105701F3E4AF0EB11CF5011082F701778695
S11311206686512CF7018085581650F5652C712C74
S1131130F401E60DF71D6081CE0101960E94DC07E3
S11311402F81F701E60DF71D218B89819A81F30127
S1131150EE0FFF1FEE0DFF1D92A381A383329105B5
S113116011F4F80108C08632910511F4F60103C0A8
S1131170899721F4F5018081822B80835394D2CF07
S11311802796EFE00C94370BA0E0B0E0EAECF8E02F
S11311900C941D0BEC015B016C0181E4C80ED11CA5
S11311A0F60180807E01F2E4EF0EF11CF7017080FD
S11311B08E010D5B1F4FF801908080E098858917A0
S11311C048F4F501E80FF11DE80FF11D11821082BA
S11311D08F5FF4CF84B1F6019081892B84B987B1F4
S11311E0F7019081892B87B98AB1F8019081892B05
S11311F08AB985B1F6019081892B85B988B1F70147
S11312009081892B88B98BB1F8019081892B8BB996
S11312108AE090E00E94D40794B1F6018081809521
S1131220892384B997B1F70180818095892387B98F
S11312309AB1F8018081809589238AB995B1F60124
S113124080818095892385B998B1F7018081809543
S1131250892388B99BB1F8018081809589238BB952
S1131260E090B000D090B1008091B0008360809392
S1131270B00082E08093B1004091B20080E090E041
S11312802E853F858217930720F5C090B2002C2D40
S1131290241B820F911D03B1081132C0F6B0F71060
S11312A02FC029B129112CC010C0212F30E0A90171
S11312B0440F551FF501E40FF51F60817181672B01
S11312C021F11F5F2885121780F37F2C802E4C2D6F
S11312D0D7CFE092B000D092B10020E088852817E3
S11312E030F5F501E20FF11DE20FF11D80819181CE
S11312F0892B21F48E859F85918380832F5FEECF88
S113130003B1F6B099B010E0DDCFDE01A40FB51F34
S113131091960D90BC91A02D4C91DE01A20FB31FAC
S113132051962C91422369F691838083CACFCDB71D
S1131330DEB7EDE00C94390BEF92FF920F931F93FD
S1131340CF93DF93FC019B01F0907C0000917A0025
S113135047B118B180917A0086FDFCCF80E090857A
S1131360891748F4D901A80FB11DA80FB11D1D920A
S11313701C928F5FF4CF97B182A18095892387B99E
S113138098B182A18095892388B987E880937A00EF
S1131390E12C81A1E81610F0E12C29C050E08085F1
S11313A0581718F5A52FB0E0EF01CA0FDB1F898984
S11313B0806480937C0080917A00806480937A00BA
S11313C080917A0086FDFCCF60917800709179005D
S11313D0AA0FBB1FA20FB31F8D919C911197860F6B
S11313E0971F8D939C935F5FDACFE394D2CF808570
S11313F0E816A0F4E901CE0DD11DCE0DD11D61A1D9
S113140070E0CB0195958795A881B9818A0F9B1FC0
S11314100E94A00A79836883E394E9CFF0927C0068
S113142000937A0018B947B9CDB7DEB7E6E00C945B
S1131430400BA0E2B0E0EFE1FAE00C94230B8C0146
S11314407B01D42E8FEF840F823018F4C8010E94E0
S11314505B08D80150968C91B701811110C0C80166
S11314600E94C408C8010E944608B2E0DB123AC0D8
S1131470BE016F5F7F4FC8010E94C4080FC0C8013E
S11314800E949C09C8010E944608E2E0DE122AC0BC
S1131490BE016F5F7F4FC8010E949C0940E0F801C4
S11314A080854817F8F4842F90E0880F991FF7017E
S11314B0E80FF91F21E030E02C0F3D1F820F931F2E
S11314C0D8011E962D913C911F97DC018D919C9122
S11314D0281B390B80819181820F931F9183808314
S11314E04F5FDDCFA096E7E00C943F0BCF93DF93E3
S11314F0EC018A819B81009711F00E94ED0B8E8193
S11315009F81009711F00E94ED0B888199810097CB
S113151011F00E94ED0B8C819D81009711F00E94C7
S1131520ED0BDF91CF910895991B79E004C0991FC9
S1131530961708F0961B881F7A95C9F78095089529
S1131540AA1BBB1B51E107C0AA1FBB1FA617B707E5
S113155010F0A61BB70B881F991F5A95A9F7809501
S11315609095BC01CD01089597FB072E16F40094C5
S113157007D077FD09D00E94A00A07FC05D03EF4ED
S1131580909581959F4F0895709561957F4F08952B
S1131590A1E21A2EAA1BBB1BFD010DC0AA1FBB1F73
S11315A0EE1FFF1FA217B307E407F50720F0A21BE5
S11315B0B30BE40BF50B661F771F881F991F1A9452
S11315C069F760957095809590959B01AC01BD017C
S11315D0CF010895052E97FB1EF400940E94010B81
S11315E057FD07D00E94C80A07FC03D04EF40C94A0
S11315F0010B50954095309521953F4F4F4F5F4FCC
S1131600089590958095709561957F4F8F4F9F4F6A
S11316100895A29FB001B39FC001A39F700D811DC7
S11316201124911DB29F700D811D1124911D0895E7
S11316302F923F924F925F926F927F928F929F92DE
S1131640AF92BF92CF92DF92EF92FF920F931F93CC
S1131650CF93DF93CDB7DEB7CA1BDB0B0FB6F8947D
S1131660DEBF0FBECDBF09942A88398848885F84BD
S11316706E847D848C849B84AA84B984C884DF802E
S1131680EE80FD800C811B81AA81B981CE0FD11D12
S11316900FB6F894DEBF0FBECDBFED010895EE0F77
S11316A0FF1F0590F491E02D09940F931F93CF939E
S11316B0DF938230910510F482E090E0E09189019B
S11316C0F0918A0120E030E0A0E0B0E0309719F119
S11316D0408151810281138148175907C8F084174A
S11316E0950769F4109731F012960C93129713969C
S11316F01C9327C00093890110938A0122C02115ED
S1131700310519F04217530718F49A01BD01EF018E
S1131710DF01F801DBCF21153105F9F0281B390B66
S11317202430310580F48A819B816115710521F093
S1131730FB019383828304C090938A01809389017F
S1131740FE01329644C0FE01E20FF31F8193919390
S113175022503109398328833AC02091870130917E
S11317608801232B41F420910C0130910D01309319
S113177088012093870120910A0130910B012115E2
S1131780310541F42DB73EB740910E0150910F0140
S1131790241B350BE0918701F0918801E217F307D0
S11317A0A0F42E1B3F0B2817390778F0AC014E5FCD
S11317B05F4F2417350748F04E0F5F1F5093880181
S11317C0409387018193919302C0E0E0F0E0CF0160
S11317D0DF91CF911F910F910895CF93DF930097DD
S11317E009F481C0FC01329713821282A09189010D
S11317F0B0918A01109781F420813181820F931F67
S113180020918701309188012817390751F5F09309
S11318108801E093870167C0ED0120E030E0CE1736
S1131820DF0740F44A815B819E0141155105F1F0C7
S1131830EA01F5CFD383C28340815181840F951F80
S1131840C817D90759F488819981840F951F029686
S1131850918380838A819B819383828321153105BF
S113186029F4F0938A01E09389013DC0E901FB83E7
S1131870EA8349915991C40FD51FEC17FD0761F410
S113188080819181840F951F0296E9019983888351
S1131890828193819B838A83E0E0F0E012968D91AC
S11318A09C911397009719F0FD01DC01F7CF8D91FE
S11318B09C9111979D012E5F3F4F820F931F2091A2
S11318C08701309188012817390769F4309729F482
S11318D010928A011092890102C013821282B0937D
S11318E08801A0938701DF91CF91089510E0C9E3A7
S11318F0D0E004C0FE010E944F0B2196CA33D107E9
S1091900C9F7F894FFCFC3
S11319060F00F4010400D007040100008B0120003D
S11319169C01B501CF01EA010702260247026902CA
S11119268E02B502DE020A030E0F101112002B
S9030000FC
