S0170000655661646572732D73756D6F626F742E737265630D
S11300000C9462000C947F000C947F000C947F008D
S11300100C947F000C947F000C947F000C947F0060
S11300200C947F000C94C20A0C947F000C947F0003
S11300300C947F000C946A090C947F000C947F004C
S11300400C947F000C947F000C947F000C947F0030
S11300500C947F000C947F000C947F000C947F0020
S11300600C947F000C947F003E673332003E67336C
S113007032003E673332003E673332003E6733322C
S1130080003E673332003E6633323E3E6732300014
S11300903E6633323E3E673230003E6732303E3E8B
S11300A0663332003E6633323E3E673230003E668F
S11300B033323E3E673230003E6733323E3E633376
S11300C03200950B11241FBECFEFD8E0DEBFCDBFA9
S11300D011E0A0E0B1E0E2E9F0E202C005900D9287
S11300E0A234B107D9F721E0A2E4B1E001C01D9226
S11300F0A03BB207E1F70E94CC020C943C100C9494
S11301000000EF92FF920F931F93CF93DF93CDB72D
S1130110DEB72A970FB6F894DEBF0FBECDBF7C01C1
S11301208B0161E00E945C0BF701808191819195C4
S1130130819591099A83898382819381919581958F
S113014091099C838B831E821D8286819781988767
S11301508F83808591859A87898780E090E020E06D
S113016030E00EC0FC01EE0FFF1F41E050E04C0FE9
S11301705D1FE40FF51F40815181240F351F019647
S1130180853091057CF3C8016AE070E00E947A0E24
S1130190C9010E947A0ECB012A960FB6F894DEBFED
S11301A00FBECDBFDF91CF911F910F91FF90EF90C4
S11301B008950F931F93CF93DF93EC018B0161E0BC
S11301C00E945C0B20E030E080E090E011C0F90177
S11301D0EE0FFF1FEC0FFD1F60817181A801445FCA
S11301E051406417750710F481E090E02F5F3F4F92
S11301F02530310564F3DF91CF911F910F9108955C
S1130200CF93DF93CDB7DEB727970FB6F894DEBF51
S11302100FBECDBF4BE250E05C834B832AE230E05B
S11302203E832D8381E08F839BB19E7F9BB9ED81BB
S1130230FE8160819F81962B9083E2E0F0E06F93D2
S113024064E06A95F1F76F913197C9F75C834B834A
S11302503E832D838F839BB191609BB9ED81FE8199
S113026060819F81962B9083EAE0F0E06F9364E0D5
S11302706A95F1F76F913197C9F75C834B833E839D
S11302802D838F838BB18E7F8BB9ED81FE8190811D
S11302908F81892B808389E290E09A83898382E02D
S11302A08F83499BF8CF60E070E0CB0104C06F5F9F
S11302B07F4F8F4F9F4F29E230E03A83298322E01A
S11302C02F834999F4CF0E94910526E933E44BE04A
S11302D05DE30E94220620E030E040E05FE30E94FC
S11302E022060E945905CB0127960FB6F894DEBF6B
S11302F00FBECDBFDF91CF910895209120013091A1
S113030021012130310581F54091990150919A01E3
S113031020911E0130911F0142175307D4F010920F
S11303209A011092990120911C0130911D01409174
S1130330180150911901421753072CF4109221010E
S11303401092200106C02F5F3F4F30931D01209370
S11303501C012091990130919A012F5F3F4F3093F6
S11303609A012093990133C0232B89F54091990177
S113037050919A0120911E0130911F014217530799
S1130380E4F010929A011092990120911C0130918D
S11303901D0140911A0150911B01241735073CF4AB
S11303A021E030E0309321012093200106C0215048
S11303B0310930931D0120931C0120919901309142
S11303C09A012F5F3F4F30939A0120939901813016
S11303D0910549F460911C0170911D0188EC90E035
S11303E00E947F0A0895892B41F468EC70E08091A3
S11303F01C0190911D010E947F0A0895CF93DF9301
S1130400EC010E9400018C179D0754F46FEF70E01B
S11304108FEF90E00E947F0A85E090E00E940A0B33
S1130420DF91CF910895CF93DF93EC01CB010E942C
S11304307F0ACE010E940A0BDF91CF910895CF93DA
S1130440DF93EC0188279927861B970BBC010E9438
S11304507F0ACE010E940A0BDF91CF910895CF93BA
S1130460DF93EC01CB019195819591090E947F0A5C
S1130470CE010E940A0BDF91CF910895CF93DF93B1
S1130480EC01CB0166277727681B790B0E947F0A52
S1130490CE010E940A0BDF91CF91089580919F01B4
S11304A09091A0018A309105B8F48091A3019091B4
S11304B0A401009739F46FEF70E080E090E00E94AF
S11304C02F0260C0019709F05DC06FEF70E080E01B
S11304D090E00E943E0256C09C012A503109263405
S11304E03105B8F48091A3019091A401009739F4E7
S11304F062E870E08FEF90E00E947F0A43C00197AA
S113050009F040C06FEF70E082E890E00E947F0A3B
S113051039C09C01205531092837310540F58091B7
S1130520A3019091A401009739F460E570E080E0A4
S113053090E00E943E0208C0019731F460E570E04B
S113054080E090E00E942F020E940001209122018D
S11305503091230182179307ACF4C9010E94FE0174
S113056080E590E09093A00180939F010BC0883CAC
S1130570910544F01092A2011092A1011092A001E1
S113058010929F0180919F019091A00101969093F8
S1130590A00180939F010895CF93DF93CDB7DEB779
S11305A065970FB6F894DEBF0FBECDBF88EB90E021
S11305B00E94C9094BE250E05E874D872AE230E091
S11305C0388B2F8781E0898B8BB18E7F8BB9EF8538
S11305D0F88990818989892B80835E874D87388B40
S11305E02F8782E0898B8AB18D7F8AB9ED85FE855C
S11305F08081998990958923808380ED97E00E947A
S1130600910B0E94420B6B017C0182E30E94BF0AA2
S11306108230A1F58EEA90E00E94C90984EF91E04E
S11306200E940A0B82E30E94BF0A182F84EA90E01A
S11306300E94C909123039F481E090E090931701C7
S11306408093160116C0103139F482E090E0909343
S11306501701809316010DC0103239F483E090E045
S1130660909317018093160104C010921701109201
S1130670160184EF91E00E940A0B08C08AE990E019
S11306800E94C90984EF91E00E940A0B82E30E9450
S1130690BF0A182F80E990E00E94C909123059F46A
S11306A081E090E090939E0180939D0110929C01C3
S11306B010929B0113C0103129F410929E011092E4
S11306C09D010CC0103251F481E090E090939E01A2
S11306D080939D0190939C0180939B0184EF91E012
S11306E00E940A0B82E30E94BF0A182F86E890E05A
S11306F00E94C909123059F481E090E09093A60158
S11307008093A5011092A4011092A30113C010318B
S113071029F41092A6011092A5010CC0103251F4D4
S113072081E090E09093A6018093A5019093A401A9
S11307308093A30181E890E00E94C90988EE93E0C8
S11307400E940A0B8CE790E00E94C90988EE93E0AE
S11307500E940A0B87E790E00E94C90988EE93E0A3
S11307600E940A0B82E790E00E94C90988EE93E098
S11307700E940A0B8DE690E00E94C90988EE93E07E
S11307800E940A0B88E690E00E94C9098091160134
S1130790909117018230910581F083309105C1F069
S11307A0019701F560911401709115018091100178
S11307B0909111010E942F0215C060911401709153
S11307C0150180911201909113010E942F020AC019
S11307D060911401709115018091100190911101A3
S11307E00E943E02812C912C54011A8A1B8A1C8A75
S11307F01D8A05C0812C912C5401730162010E9451
S11308000001209122013091230182179307BCF447
S11308108091A5019091A601019739F481E090E0BF
S11308209093A2018093A10103C0C9010E94FE011B
S113083081E090E09093A8018093A70159C01092A1
S1130840A8011092A70154C060ED77E0CE01019693
S11308500E9481001092A2011092A1011092A001A5
S113086010929F012DE0289F8001299F100D1124D3
S11308700F3F110519F014F00FEF10E001308FEF66
S1130880180714F401E01FEFC8010197C19710F491
S113089002E310E0C801C196C19710F40EEC1FEFFB
S11308A0112364F46FEF70E083E090E00E941F0274
S11308B0B8018AE090E00E943E021AC010161106A8
S11308C07CF46FEF70E083E090E00E941F026627E3
S11308D07727601B710B8AE090E00E942F0208C00A
S11308E0012B31F468E37FEF81E09FEF0E947F0AE0
S11308F060ED77E0CE0101960E94D900019709F4DA
S1130900A3CF0E94420B2B013C01DC01CB018C19CB
S11309109D09AE09BF096C017D01BC01CD010E9496
S1130920910520E030E040E85DE30E9422069B014F
S1130930AC016A897B898C899D890E94ED046A8B4C
S11309407B8B8C8B9D8B8C0C9D1CAE1CBF1C20E068
S113095030E040E85FE30E941D068823A4F1809103
S1130960A1019091A201019719F40E944E021DC0A9
S11309708091A7019091A8010197B9F01092A0016C
S113098010929F0180919D0190919E01019739F4ED
S113099080919B0190919C010E947D0106C068E7B3
S11309A070E080E090E00E94130220E030E040E834
S11309B05FE36A897B898C899D890E94EC046A8B38
S11309C07B8B8C8B9D8B98EE891693E09906A10402
S11309D0B1040CF00FCF11CF5058BB27AA270E94A7
S11309E004050C94E3050E94D50538F00E94DC054B
S11309F020F039F49F3F19F426F40C94D2050EF438
S1130A00E095E7FB0C94CC05E92F0E94F40558F31C
S1130A10BA17620773078407950720F079F4A6F5DF
S1130A200C9416060EF4E0950B2EBA2FA02D0B0194
S1130A30B90190010C01CA01A0011124FF27591B1F
S1130A4099F0593F50F4503E68F11A16F040A22F25
S1130A50232F342F4427585FF3CF46953795279596
S1130A60A795F0405395C9F77EF41F16BA0B620B95
S1130A70730B840BBAF09150A1F0FF0FBB1F661FDC
S1130A80771F881FC2F70EC0BA0F621F731F841F1F
S1130A9048F4879577956795B795F7959E3F08F045
S1130AA0B0CF9395880F08F09927EE0F9795879507
S1130AB008950E9460056894B1110C941706089576
S1130AC00E94FC0588F09F5798F0B92F9927B751D9
S1130AD0B0F0E1F0660F771F881F991F1AF0BA95DE
S1130AE0C9F714C0B13091F00E941606B1E0089520
S1130AF00C941606672F782F8827B85F39F0B93F12
S1130B00CCF3869577956795B395D9F73EF4909590
S1130B108095709561957F4F8F4F9F4F0895E8940E
S1130B2009C097FB3EF490958095709561957F4F31
S1130B308F4F9F4F9923A9F0F92F96E9BB279395DF
S1130B40F695879577956795B795F111F8CFFAF4EF
S1130B50BB0F11F460FF1BC06F5F7F4F8F4F9F4F20
S1130B6016C0882311F096E911C0772321F09EE87E
S1130B70872F762F05C0662371F096E8862F70E0E4
S1130B8060E02AF09A95660F771F881FDAF7880FBE
S1130B909695879597F9089597F99F6780E870E08F
S1130BA060E008959FEF80EC089500240A941616DF
S1130BB0170618060906089500240A941216130647
S1130BC0140605060895092E0394000C11F48823D5
S1130BD052F0BB0F40F4BF2B11F460FF04C06F5FF1
S1130BE07F4F8F4F9F4F089557FD9058440F551FC7
S1130BF059F05F3F71F04795880F97FB991F61F09B
S1130C009F3F79F087950895121613061406551F11
S1130C10F2CF4695F1DF08C0161617061806991F7D
S1130C20F1CF86957105610508940895E894BB2772
S1130C3066277727CB0197F908950E948F0608F459
S1130C408FEF08950E9435060C94E3050E94D505A4
S1130C5038F00E94DC0520F0952311F00C94CC05AB
S1130C600C94D20511240C9417060E94F40570F319
S1130C70959FC1F3950F50E0551F629FF001729F3D
S1130C80BB27F00DB11D639FAA27F00DB11DAA1F4C
S1130C90649F6627B00DA11D661F829F2227B00D99
S1130CA0A11D621F739FB00DA11D621F839FA00D24
S1130CB0611D221F749F3327A00D611D231F849F74
S1130CC0600D211D822F762F6A2F11249F575040CB
S1130CD09AF0F1F088234AF0EE0FFF1FBB1F661F46
S1130CE0771F881F91505040A9F79E3F510580F00F
S1130CF00C94CC050C9417065F3FE4F3983ED4F3B0
S1130D00869577956795B795F795E7959F5FC1F7B2
S1130D10FE2B880F911D9695879597F90895990F45
S1130D200008550FAA0BE0E8FEEF16161706E807B1
S1130D30F907C0F012161306E407F50798F0621BD2
S1130D40730B840B950B39F40A2661F0232B242BA7
S1130D50252B21F408950A2609F4A140A6958FEFC6
S1130D60811D811D089590914701E0914201F09108
S1130D704301992311F0849101C080812FEB280F46
S1130D802A3110F4805E0895803249F49F012F5F68
S1130D903F4F3093430120934201EF2B31F70895E5
S1130DA01F93CF93DF930E94B306C0E0D0E01AE014
S1130DB090ED980F9A30B8F49E01129FE001139FB2
S1130DC0D00D1124C80FD11D87FDDA95E0978091CD
S1130DD04201909143010196909343018093420113
S1130DE00E94B306E5CFCE01DF91CF911F91089504
S1130DF010926F0083E28093800081E180938100F0
S1130E001092820080E197E2909389008093880099
S1130E1010928B0010928A00229A789408958F92EF
S1130E209F92AF92BF92DF92EF92FF920F931F9324
S1130E30CF93DF935C018B01D42E80914401811107
S1130E4005C081E0809344010E94F80610920901D4
S1130E50B7FE05C0E894B7F82AE0F22E02C0FF24DA
S1130E60F394E09081002E2D287FE22E48ECF49E2E
S1130E70C00111248A159B05E0F4E50151E1A51692
S1130E8057E2B50610F0C0E1D7E2BE01769567954A
S1130E9080E090E06058794687469F4F4E01A12C30
S1130EA0B12CA50194010E948E0E59018E2D8160F2
S1130EB024C0C8E2FC9EC02D1124D0E0CA15DB0575
S1130EC008F4E501BE01769567959E0140E050E087
S1130ED08AE0F81207C080E090E0605E73448144C9
S1130EE09F4F06C080E090E060537D4E8C4E9F4F34
S1130EF00E948E0E59018E2D8260882E2AE0F212F5
S1130F0007C0CE0105966AE070E00E94660EEB0110
S1130F10C83E43E0D40759F09801DE010E94CF0E89
S1130F2028EE33E040E050E00E94B00E89011092B8
S1130F306F0080928100B0928900A0928800209175
S1130F408800309189004D2D403108F04FE080E158
S1130F5090E0841B9109A90102C0569547958A9592
S1130F60E2F750938B0040938A0010934A01009358
S1130F70490186B38FEF86BB81E080936F00DF91D8
S1130F80CF911F910F91FF90EF90DF90BF90AF90A2
S1130F909F908F900895CF93DF93EB018F3F11F0D3
S1130FA0411105C040E0BE0188EE93E043C08131A9
S1130FB030F050EF580F503618F05FE501C050E0A4
S1130FC0852F6CE00E945A0E682F74EF760390010F
S1130FD01124250F311D2C30310540F4F901EE0F99
S1130FE0FF1FEC5DFE4F2081318102C020E030E024
S1130FF0873081F0082E02C0220F331F0A94E2F7D3
S1131000823028F0C90105966AE070E00CC0C9017D
S113101090580CC0C90136E0880F991F3A95E1F742
S1131020029665E070E00E94660ECB01403108F044
S11310304FE0BE010E940F07DF91CF910895A2E017
S1131040B0E0E5E2F8E00C94E00E909008018091A5
S11310504601882321F060914501611117C077246E
S11310607394B0ECAB2EBDE5BB2E1AE0612E04E008
S1131070802E80EDC82E87E0D82E94E0E92EF12C46
S113108004EF11E02FE0422E512C15C070E040E037
S113109088EE93E00E940F071092450117C186362F
S11310A0D4F5813609F4A9C07CF58C3309F460C009
S11310B08E3381F493940E94B306209142013091BF
S11310C043012F5F3F4F3093430120934201853604
S11310D031F752C0813209F08BC080920801D0925E
S11310E00701C0920601F0920501E09204011093F9
S11310F003010093020150920101409200011092F9
S11311004601A4E09A2ED7CF8336A1F10CF478C01F
S113111010E082E077C08D36C1F194F4873691F106
S113112074F18C3609F064C00E94D006BC0190931F
S1131130050180930401809106019091070151C03B
S11311408237C9F14CF48F3609F052C00E94D006A0
S1131150982E80930801AFCF843781F1863709F048
S113116047C00E94D0069093010180930001A3CF51
S11311709A94A1CF10E020C010E084E043C010E0B6
S113118085E040C010E087E03DC00E94B3068C3685
S113119019F41092460104C0709246011092450160
S11311A020914201309143012F5F3F4F309343011F
S11311B02093420180CF11E080E024C00E94D00639
S11311C0BC01C5010E94660E669EC001679E900D1B
S11311D0112490930701809306016091040170919A
S11311E005010E94660E709303016093020163CFB0
S11311F0109243011092420169C010E089E002C0DC
S113120010E08BE0082F9CE0999E000D11240E94B1
S1131210B306982F977F933261F420914201309165
S113122043012F5F3F4F30934301209342010F5FEF
S1131230EECF8D3271F420914201309143012F5F42
S11312403F4F309343012093420101500E94B30663
S1131250F0CF60910201709103018153883050F402
S1131260E0900601F09007010E94D006BC01C7017E
S11312700E94660E7B01F694E79469837A830E9448
S1131280B30669817A818E3269F4209142013091EA
S113129043012F5F3F4F30934301209342016E0D72
S11312A07F1DE9CF80914601882339F09B01369553
S11312B0279520934501621B710940910001112378
S11312C011F08FEF01C0802F0E94CB072296E0E13E
S11312D00C94FC0E1F920F920FB60F9211242F93B1
S11312E03F934F935F936F937F938F939F93AF93AA
S11312F0BF93EF93FF938091490190914A019C0120
S11313002150310930934A0120934901892B11F569
S113131010926F00789480918100887F816080931F
S1131320810080E197E29093890080938800109275
S11313308B0010928A0081E0809309018091420120
S113134090914301892B31F080914801811102C0B1
S11313500E941F08FF91EF91BF91AF919F918F91D0
S11313607F916F915F914F913F912F910F900FBE9D
S11313700F901F90189510926F00909343018093E3
S1131380420181E080934701109245010E941F08A9
S113139008950E94BB090895883058F491E001C073
S11313A0990F8A95EAF7892FAAE2B0E0EBE2F0E020
S11313B021C08E3060F498EF980F81E001C0880F4F
S11313C09A95EAF7A4E2B0E0E5E2F0E013C08531D3
S11313D060F492EF980F81E001C0880F9A95EAF7C4
S11313E0A7E2B0E0E8E2F0E005C080E0A0E0B0E011
S11313F0E0E0F0E06F3F19F49081982709C066237C
S113140019F09081982B04C02081982F90959223F5
S113141090839C91982B9C93089583EF8093B000C4
S113142084BD82E08093B10085BD1092B400109217
S1131430B30018BC17BC60E086E00E94CC0960E0F1
S113144085E00E94CC0960E08BE00E94CC0960E05A
S113145083E00E94CC0908958091A901811105C0FF
S113146081E08093A9010E940D0A0895CF93DF9330
S1131470EC010E942C0AD7FF05C0D195C195D10972
S113148081E001C080E0CF3FD10519F014F0CFEF27
S1131490D0E0882319F018BCC7BD02C0C8BD17BC72
S11314A0DF91CF910895CF93DF93EC010E942C0A32
S11314B0D7FF05C0D195C195D10981E001C080E075
S11314C0CF3FD10519F014F0CFEFD0E0882329F0F5
S11314D01092B400C093B30004C0C093B40010923F
S11314E0B300DF91CF910895CF93DF93EB010E9476
S11314F0360ACE010E94530ADF91CF9108950E94CB
S1131500740A089584B18D7C84B985B1826385B9E8
S113151085E090E06F9364E06A95F1F76F9101972D
S1131520C9F708958091AA01811105C081E08093D3
S1131530AA010E94820A08951F93CF93DF93182F64
S11315400E94920AC12FD0E023B130E0209530955B
S11315502C233D23232BC1F38AE090E00E940A0B45
S113156023B130E0209530952C233D23232B61F3C8
S113157083B180958123DF91CF911F9108950E94BB
S11315809C0A08952F928F939F932FB680915201B6
S1131590909153010196809352019093530190E0EE
S11315A080915401891F8093540190914C019C5F58
S11315B090934C0180914B0180519742C0F09093DD
S11315C04C0180934B0180914D0190914E01019605
S11315D080934D0190934E0190E080914F01891FBB
S11315E080934F0180915001891F809350012FBE39
S11315F09F918F912F90189528EE33E0019748F032
S1131600F9016F9364E06A95F1F76F913197C9F727
S1131610F5CF08950E94FC0A0895E0E7F0E0808188
S11316208E7F8083A0EBB0E08C9183608C93A1EBE0
S1131630B0E08C91807F8C938C9182608C93B89A6B
S1131640808181608083789408958091AB018111B9
S113165005C081E08093AB010E940D0B08950E94A8
S1131660250BE0E7F0E080818E7F808360914D015F
S113167070914E0180914F01909150012081216021
S1131680208308950E942F0B08950E94250BE0E704
S1131690F0E080818E7F808310924D0110924E0184
S11316A010924F011092500110924C0110924B0174
S11316B08081816080830895462FBC0185E591E097
S11316C00E94DF0D08950F93CF93DF9300D000D0D5
S11316D01F92CDB7DEB79C0185E0ECE3F1E0DE01BB
S11316E0119601900D928A95E1F7662311F00FEFA0
S11316F001C003E145E0BE016F5F7F4F85E591E0E6
S11317000E94350C85E591E00E940C0C0E94450B6B
S11317100F900F900F900F900F90DF91CF910F913A
S1131720089560E00E94630B089585E591E00E94AE
S11317303C0E08956F9364E06A95F1F76F910197F9
S1131740C9F70895FC011182108213821282158256
S113175014821682683068F489E290E09183808371
S11317608BE290E0938382838AE290E09583848382
S11317701FC06E3070F483E290E09183808385E231
S113178090E09383828384E290E09583848368501D
S11317900FC0653198F486E290E09183808388E2FB
S11317A090E09383828387E290E0958384836E50F4
S11317B081E001C0880F6A95EAF786830895A7E05F
S11317C0B0E0E5EEFBE00C94EC0E8C01FC01118220
S11317D0108213821282158214821782168261315A
S11317E018F080E1808702C0FC016087F801208B3B
S11317F0642FCE0101960E94A20B8F81F80181878C
S11318008B819C81938782878D819E819587848734
S11318102796E4E00C94080FFC01A485B585109785
S113182079F08C919185892B8C93A285B3859C91B9
S11318308185809589238C9388EC90E00E949A0B93
S11318400895FC01A485B585109771F08C9191855C
S1131850892B8C93A285B3858C919185892B8C934C
S113186088EC90E00E949A0B0895A7E0B0E0EBE3C7
S1131870FCE00C94E10E7C014B01642F3901402FF4
S113188020E00E94DF0B87010F5B1F4FF8011082DD
S11318906701F2E4CF0ED11CF60110825701F3E484
S11318A0AF0EB11CF5011082F70177866686512CC4
S11318B0F7018085581650F5652C712CF401E60D5E
S11318C0F71D6081CE0101960E94A20B2F81F701C2
S11318D0E60DF71D218B89819A81F301EE0FFF1F1D
S11318E0EE0DFF1D92A381A38332910511F4F8013B
S11318F008C08632910511F4F60103C0899721F4DA
S1131900F5018081822B80835394D2CF2796EFE018
S11319100C94FD0EA0E0B0E0E0E9FCE00C94E30ED2
S1131920EC015B016C0181E4C80ED11CF6018080DE
S11319307E01F2E4EF0EF11CF70170808E010D5B65
S11319401F4FF801908080E09885891748F4F501CD
S1131950E80FF11DE80FF11D118210828F5FF4CFA3
S113196084B1F6019081892B84B987B1F701908104
S1131970892B87B98AB1F8019081892B8AB985B1FD
S1131980F6019081892B85B988B1F7019081892B63
S113199088B98BB1F8019081892B8BB98AE090E0EA
S11319A00E949A0B94B1F60180818095892384B9B1
S11319B097B1F70180818095892387B99AB1F8019D
S11319C08081809589238AB995B1F60180818095BB
S11319D0892385B998B1F70180818095892388B9D5
S11319E09BB1F8018081809589238BB9E090B00088
S11319F0D090B1008091B00083608093B00082E009
S1131A008093B1004091B20080E090E02E853F8544
S1131A108217930720F5C090B2002C2D241B820F4F
S1131A20911D03B1081132C0F6B0F7102FC029B1CF
S1131A3029112CC010C0212F30E0A901440F551FDB
S1131A40F501E40FF51F60817181672B21F11F5FA0
S1131A502885121780F37F2C802E4C2DD7CFE0924F
S1131A60B000D092B10020E08885281730F5F50148
S1131A70E20FF11DE20FF11D80819181892B21F488
S1131A808E859F85918380832F5FEECF03B1F6B05F
S1131A9099B010E0DDCFDE01A40FB51F91960D9033
S1131AA0BC91A02D4C91DE01A20FB31F51962C9135
S1131AB0422369F691838083CACFCDB7DEB7EDE0C8
S1131AC00C94FF0EEF92FF920F931F93CF93DF932B
S1131AD0FC019B01F0907C0000917A0047B118B1A1
S1131AE080917A0086FDFCCF80E09085891748F4C8
S1131AF0D901A80FB11DA80FB11D1D921C928F5FB3
S1131B00F4CF97B182A18095892387B998B182A136
S1131B108095892388B987E880937A00E12C81A194
S1131B20E81610F0E12C29C050E08085581718F50C
S1131B30A52FB0E0EF01CA0FDB1F89898064809371
S1131B407C0080917A00806480937A0080917A008E
S1131B5086FDFCCF6091780070917900AA0FBB1FBD
S1131B60A20FB31F8D919C911197860F971F8D9390
S1131B709C935F5FDACFE394D2CF8085E816A0F41C
S1131B80E901CE0DD11DCE0DD11D61A170E0CB01B7
S1131B9095958795A881B9818A0F9B1F0E94660E2F
S1131BA079836883E394E9CFF0927C0000937A0010
S1131BB018B947B9CDB7DEB7E6E00C94060FA0E23A
S1131BC0B0E0E5EEFDE00C94E90E8C017B01D42E2F
S1131BD08FEF840F823018F4C8010E94210CD801C1
S1131BE050968C91B701811110C0C8010E948A0CD3
S1131BF0C8010E940C0CB2E0DB123AC0BE016F5F58
S1131C007F4FC8010E948A0C0FC0C8010E94620D58
S1131C10C8010E940C0CE2E0DE122AC0BE016F5F14
S1131C207F4FC8010E94620D40E0F801808548178B
S1131C30F8F4842F90E0880F991FF701E80FF91F3B
S1131C4021E030E02C0F3D1F820F931FD8011E9618
S1131C502D913C911F97DC018D919C91281B390B90
S1131C6080819181820F931F918380834F5FDDCFA9
S1131C70A096E7E00C94050FCF93DF93EC018A81E3
S1131C809B81009711F00E94B30F8E819F81009772
S1131C9011F00E94B30F88819981009711F00E947E
S1131CA0B30F8C819D81009711F00E94B30FDF91D7
S1131CB0CF910895991B79E004C0991F961708F0F5
S1131CC0961B881F7A95C9F780950895AA1BBB1B9C
S1131CD051E107C0AA1FBB1FA617B70710F0A61B28
S1131CE0B70B881F991F5A95A9F780959095BC0149
S1131CF0CD01089597FB072E16F4009407D077FDC5
S1131D0009D00E94660E07FC05D03EF4909581959B
S1131D109F4F0895709561957F4F0895A1E21A2E03
S1131D20AA1BBB1BFD010DC0AA1FBB1FEE1FFF1F7B
S1131D30A217B307E407F50720F0A21BB30BE40BCB
S1131D40F50B661F771F881F991F1A9469F7609512
S1131D507095809590959B01AC01BD01CF010895CC
S1131D60052E97FB1EF400940E94C70E57FD07D062
S1131D700E948E0E07FC03D04EF40C94C70E5095AF
S1131D804095309521953F4F4F4F5F4F0895909563
S1131D908095709561957F4F8F4F9F4F0895A29FB7
S1131DA0B001B39FC001A39F700D811D1124911D2B
S1131DB0B29F700D811D1124911D08952F923F92A1
S1131DC04F925F926F927F928F929F92AF92BF9247
S1131DD0CF92DF92EF92FF920F931F93CF93DF93F3
S1131DE0CDB7DEB7CA1BDB0B0FB6F894DEBF0FBE50
S1131DF0CDBF09942A88398848885F846E847D849D
S1131E008C849B84AA84B984C884DF80EE80FD809E
S1131E100C811B81AA81B981CE0FD11D0FB6F89414
S1131E20DEBF0FBECDBFED010895EE0FFF1F05907D
S1131E30F491E02D09940F931F93CF93DF93823095
S1131E40910510F482E090E0E091AE01F091AF01D1
S1131E5020E030E0A0E0B0E0309719F140815181FA
S1131E600281138148175907C8F08417950769F44C
S1131E70109731F012960C93129713961C9327C067
S1131E800093AE011093AF0122C02115310519F062
S1131E904217530718F49A01BD01EF01DF01F8015D
S1131EA0DBCF21153105F9F0281B390B243031051E
S1131EB080F48A819B816115710521F0FB01938374
S1131EC0828304C09093AF018093AE01FE013296E9
S1131ED044C0FE01E20FF31F819391932250310914
S1131EE0398328833AC02091AC013091AD01232B72
S1131EF041F420910C0130910D013093AD012093F8
S1131F00AC0120910A0130910B012115310541F4F6
S1131F102DB73EB740910E0150910F01241B350B94
S1131F20E091AC01F091AD01E217F307A0F42E1B90
S1131F303F0B2817390778F0AC014E5F5F4F241729
S1131F40350748F04E0F5F1F5093AD014093AC012D
S1131F508193919302C0E0E0F0E0CF01DF91CF9153
S1131F601F910F910895CF93DF93009709F481C0D7
S1131F70FC01329713821282A091AE01B091AF019D
S1131F80109781F420813181820F931F2091AC013D
S1131F903091AD012817390751F5F093AD01E09365
S1131FA0AC0167C0ED0120E030E0CE17DF0740F45C
S1131FB04A815B819E0141155105F1F0EA01F5CF9B
S1131FC0D383C28340815181840F951FC817D907D9
S1131FD059F488819981840F951F02969183808397
S1131FE08A819B81938382832115310529F4F0939F
S1131FF0AF01E093AE013DC0E901FB83EA8349915F
S11320005991C40FD51FEC17FD0761F480819181AC
S1132010840F951F0296E9019983888382819381B5
S11320209B838A83E0E0F0E012968D919C91139754
S1132030009719F0FD01DC01F7CF8D919C91119768
S11320409D012E5F3F4F820F931F2091AC01309171
S1132050AD012817390769F4309729F41092AF01BC
S11320601092AE0102C013821282B093AD01A0930C
S1132070AC01DF91CF91089510E0C1E6D0E004C037
S1132080FE010E94150F2196C236D107C9F7F894B4
S1052090FFCF7C
S11320920F00F4010400D00704010000B001200085
S11320A232006400FF000100B4003C003200020070
S11320B2010032009C01B501CF01EA0107022602A8
S11320C2470269028E02B502DE020A030E0F1011E4
S10520D21200F6
S9030000FC
